{
  "contractName": "StorageFactory",
  "abi": [
    {
      "inputs": [
        {
          "internalType": "uint256",
          "name": "",
          "type": "uint256"
        }
      ],
      "name": "simpleStorageArray",
      "outputs": [
        {
          "internalType": "contract SimpleStorage",
          "name": "",
          "type": "address"
        }
      ],
      "stateMutability": "view",
      "type": "function"
    },
    {
      "inputs": [],
      "name": "createSimpleStorageContract",
      "outputs": [],
      "stateMutability": "nonpayable",
      "type": "function"
    },
    {
      "inputs": [
        {
          "internalType": "uint256",
          "name": "_simpleStorageIndex",
          "type": "uint256"
        },
        {
          "internalType": "uint256",
          "name": "_simpleStorageNumber",
          "type": "uint256"
        }
      ],
      "name": "sfStore",
      "outputs": [],
      "stateMutability": "nonpayable",
      "type": "function"
    },
    {
      "inputs": [
        {
          "internalType": "uint256",
          "name": "_simpleStorageIndex",
          "type": "uint256"
        }
      ],
      "name": "sfGet",
      "outputs": [
        {
          "internalType": "uint256",
          "name": "",
          "type": "uint256"
        }
      ],
      "stateMutability": "view",
      "type": "function"
    }
  ],
  "bytecode": "0x608060405234801561000f575f80fd5b50610cf78061001d5f395ff3fe608060405234801561000f575f80fd5b506004361061004a575f3560e01c80631563700f1461004e5780631dda65411461006a57806364591bf114610074578063c5f19c20146100a4575b5f80fd5b6100686004803603810190610063919061032b565b6100d4565b005b610072610178565b005b61008e60048036038101906100899190610369565b6101fe565b60405161009b919061040e565b60405180910390f35b6100be60048036038101906100b99190610369565b610238565b6040516100cb9190610436565b60405180910390f35b5f82815481106100e7576100e661044f565b5b905f5260205f20015f9054906101000a900473ffffffffffffffffffffffffffffffffffffffff1673ffffffffffffffffffffffffffffffffffffffff16636057361d826040518263ffffffff1660e01b81526004016101479190610436565b5f604051808303815f87803b15801561015e575f80fd5b505af1158015610170573d5f803e3d5ffd5b505050505050565b5f604051610185906102e7565b604051809103905ff08015801561019e573d5f803e3d5ffd5b50908060018154018082558091505060019003905f5260205f20015f9091909190916101000a81548173ffffffffffffffffffffffffffffffffffffffff021916908373ffffffffffffffffffffffffffffffffffffffff160217905550565b5f818154811061020c575f80fd5b905f5260205f20015f915054906101000a900473ffffffffffffffffffffffffffffffffffffffff1681565b5f80828154811061024c5761024b61044f565b5b905f5260205f20015f9054906101000a900473ffffffffffffffffffffffffffffffffffffffff1673ffffffffffffffffffffffffffffffffffffffff16632e64cec16040518163ffffffff1660e01b8152600401602060405180830381865afa1580156102bc573d5f803e3d5ffd5b505050506040513d601f19601f820116820180604052508101906102e09190610490565b9050919050565b610806806104bc83390190565b5f80fd5b5f819050919050565b61030a816102f8565b8114610314575f80fd5b50565b5f8135905061032581610301565b92915050565b5f8060408385031215610341576103406102f4565b5b5f61034e85828601610317565b925050602061035f85828601610317565b9150509250929050565b5f6020828403121561037e5761037d6102f4565b5b5f61038b84828501610317565b91505092915050565b5f73ffffffffffffffffffffffffffffffffffffffff82169050919050565b5f819050919050565b5f6103d66103d16103cc84610394565b6103b3565b610394565b9050919050565b5f6103e7826103bc565b9050919050565b5f6103f8826103dd565b9050919050565b610408816103ee565b82525050565b5f6020820190506104215f8301846103ff565b92915050565b610430816102f8565b82525050565b5f6020820190506104495f830184610427565b92915050565b7f4e487b71000000000000000000000000000000000000000000000000000000005f52603260045260245ffd5b5f8151905061048a81610301565b92915050565b5f602082840312156104a5576104a46102f4565b5b5f6104b28482850161047c565b9150509291505056fe608060405234801561000f575f80fd5b506107e98061001d5f395ff3fe608060405234801561000f575f80fd5b506004361061004a575f3560e01c80632e64cec11461004e5780636057361d1461006c5780636f760f41146100885780639e7a13ad146100a4575b5f80fd5b6100566100d5565b604051610063919061027d565b60405180910390f35b610086600480360381019061008191906102c8565b6100dd565b005b6100a2600480360381019061009d9190610354565b6100e6565b005b6100be60048036038101906100b991906102c8565b6101b0565b6040516100cc92919061043b565b60405180910390f35b5f8054905090565b805f8190555050565b80600284846040516100f99291906104a5565b9081526020016040518091039020819055506001604051806040016040528083815260200185858080601f0160208091040260200160405190810160405280939291908181526020018383808284375f81840152601f19601f82011690508083019250505050505050815250908060018154018082558091505060019003905f5260205f2090600202015f909190919091505f820151815f015560208201518160010190816101a891906106e4565b505050505050565b600181815481106101bf575f80fd5b905f5260205f2090600202015f91509050805f0154908060010180546101e490610517565b80601f016020809104026020016040519081016040528092919081815260200182805461021090610517565b801561025b5780601f106102325761010080835404028352916020019161025b565b820191905f5260205f20905b81548152906001019060200180831161023e57829003601f168201915b5050505050905082565b5f819050919050565b61027781610265565b82525050565b5f6020820190506102905f83018461026e565b92915050565b5f80fd5b5f80fd5b6102a781610265565b81146102b1575f80fd5b50565b5f813590506102c28161029e565b92915050565b5f602082840312156102dd576102dc610296565b5b5f6102ea848285016102b4565b91505092915050565b5f80fd5b5f80fd5b5f80fd5b5f8083601f840112610314576103136102f3565b5b8235905067ffffffffffffffff811115610331576103306102f7565b5b60208301915083600182028301111561034d5761034c6102fb565b5b9250929050565b5f805f6040848603121561036b5761036a610296565b5b5f84013567ffffffffffffffff8111156103885761038761029a565b5b610394868287016102ff565b935093505060206103a7868287016102b4565b9150509250925092565b5f81519050919050565b5f82825260208201905092915050565b5f5b838110156103e85780820151818401526020810190506103cd565b5f8484015250505050565b5f601f19601f8301169050919050565b5f61040d826103b1565b61041781856103bb565b93506104278185602086016103cb565b610430816103f3565b840191505092915050565b5f60408201905061044e5f83018561026e565b81810360208301526104608184610403565b90509392505050565b5f81905092915050565b828183375f83830152505050565b5f61048c8385610469565b9350610499838584610473565b82840190509392505050565b5f6104b1828486610481565b91508190509392505050565b7f4e487b71000000000000000000000000000000000000000000000000000000005f52604160045260245ffd5b7f4e487b71000000000000000000000000000000000000000000000000000000005f52602260045260245ffd5b5f600282049050600182168061052e57607f821691505b602082108103610541576105406104ea565b5b50919050565b5f819050815f5260205f209050919050565b5f6020601f8301049050919050565b5f82821b905092915050565b5f600883026105a37fffffffffffffffffffffffffffffffffffffffffffffffffffffffffffffffff82610568565b6105ad8683610568565b95508019841693508086168417925050509392505050565b5f819050919050565b5f6105e86105e36105de84610265565b6105c5565b610265565b9050919050565b5f819050919050565b610601836105ce565b61061561060d826105ef565b848454610574565b825550505050565b5f90565b61062961061d565b6106348184846105f8565b505050565b5b818110156106575761064c5f82610621565b60018101905061063a565b5050565b601f82111561069c5761066d81610547565b61067684610559565b81016020851015610685578190505b61069961069185610559565b830182610639565b50505b505050565b5f82821c905092915050565b5f6106bc5f19846008026106a1565b1980831691505092915050565b5f6106d483836106ad565b9150826002028217905092915050565b6106ed826103b1565b67ffffffffffffffff811115610706576107056104bd565b5b6107108254610517565b61071b82828561065b565b5f60209050601f83116001811461074c575f841561073a578287015190505b61074485826106c9565b8655506107ab565b601f19841661075a86610547565b5f5b828110156107815784890151825560018201915060208501945060208101905061075c565b8683101561079e578489015161079a601f8916826106ad565b8355505b6001600288020188555050505b50505050505056fea264697066735822122076c3b71f68f45f31f691a6221384de542bc4fc5cdd566c3e1fc46ff38f3d10c964736f6c63430008150033a264697066735822122056b566cfdbaabc88072cff79a5090dff9c155194eeecca2fb6c6652d9b3707b964736f6c63430008150033",
  "immutableReferences": {},
  "source": "// SPDX-License-Identifier: MIT\npragma solidity ^0.8.0;\n\nimport \"./SimpleStorage.sol\";\n\ncontract StorageFactory {\n    SimpleStorage[] public simpleStorageArray;\n\n    function createSimpleStorageContract() public {\n        simpleStorageArray.push(new SimpleStorage());\n    }\n\n    function sfStore(uint256 _simpleStorageIndex, uint256 _simpleStorageNumber) public {\n        simpleStorageArray[_simpleStorageIndex].store(_simpleStorageNumber);\n    }\n\n    function sfGet(uint256 _simpleStorageIndex) public view returns (uint256) {\n        return simpleStorageArray[_simpleStorageIndex].retrieve();\n    }\n}",
  "sourcePath": "/Users/reyansh/Code/Smart/dAppLearned/freecodecamp/storageFactory/contracts/StorageFactory.sol",
  "compiler": {
    "name": "solc",
    "version": "0.8.21+commit.d9974bed.Emscripten.clang"
  },
  "schemaVersion": "3.4.16",
  "updatedAt": "2024-06-08T16:32:05.909Z",
  "devdoc": {
    "kind": "dev",
    "methods": {},
    "version": 1
  },
  "userdoc": {
    "kind": "user",
    "methods": {},
    "version": 1
  }
}