{
  "contractName": "ExtraStorage",
  "abi": [
    {
      "inputs": [
        {
          "internalType": "string",
          "name": "_name",
          "type": "string"
        },
        {
          "internalType": "uint256",
          "name": "_favoriteNumber",
          "type": "uint256"
        }
      ],
      "name": "addPerson",
      "outputs": [],
      "stateMutability": "nonpayable",
      "type": "function"
    },
    {
      "inputs": [
        {
          "internalType": "uint256",
          "name": "",
          "type": "uint256"
        }
      ],
      "name": "people",
      "outputs": [
        {
          "internalType": "uint256",
          "name": "favoriteNumber",
          "type": "uint256"
        },
        {
          "internalType": "string",
          "name": "name",
          "type": "string"
        }
      ],
      "stateMutability": "view",
      "type": "function"
    },
    {
      "inputs": [],
      "name": "retrieve",
      "outputs": [
        {
          "internalType": "uint256",
          "name": "",
          "type": "uint256"
        }
      ],
      "stateMutability": "view",
      "type": "function"
    },
    {
      "inputs": [
        {
          "internalType": "uint256",
          "name": "_favoriteNumber",
          "type": "uint256"
        }
      ],
      "name": "store",
      "outputs": [],
      "stateMutability": "nonpayable",
      "type": "function"
    }
  ],
  "bytecode": "0x608060405234801561000f575f80fd5b506108558061001d5f395ff3fe608060405234801561000f575f80fd5b506004361061004a575f3560e01c80632e64cec11461004e5780636057361d1461006c5780636f760f41146100885780639e7a13ad146100a4575b5f80fd5b6100566100d5565b6040516100639190610289565b60405180910390f35b610086600480360381019061008191906102d4565b6100dd565b005b6100a2600480360381019061009d9190610360565b6100f2565b005b6100be60048036038101906100b991906102d4565b6101bc565b6040516100cc929190610447565b60405180910390f35b5f8054905090565b6005816100ea91906104a2565b5f8190555050565b8060028484604051610105929190610511565b9081526020016040518091039020819055506001604051806040016040528083815260200185858080601f0160208091040260200160405190810160405280939291908181526020018383808284375f81840152601f19601f82011690508083019250505050505050815250908060018154018082558091505060019003905f5260205f2090600202015f909190919091505f820151815f015560208201518160010190816101b49190610750565b505050505050565b600181815481106101cb575f80fd5b905f5260205f2090600202015f91509050805f0154908060010180546101f090610583565b80601f016020809104026020016040519081016040528092919081815260200182805461021c90610583565b80156102675780601f1061023e57610100808354040283529160200191610267565b820191905f5260205f20905b81548152906001019060200180831161024a57829003601f168201915b5050505050905082565b5f819050919050565b61028381610271565b82525050565b5f60208201905061029c5f83018461027a565b92915050565b5f80fd5b5f80fd5b6102b381610271565b81146102bd575f80fd5b50565b5f813590506102ce816102aa565b92915050565b5f602082840312156102e9576102e86102a2565b5b5f6102f6848285016102c0565b91505092915050565b5f80fd5b5f80fd5b5f80fd5b5f8083601f8401126103205761031f6102ff565b5b8235905067ffffffffffffffff81111561033d5761033c610303565b5b60208301915083600182028301111561035957610358610307565b5b9250929050565b5f805f60408486031215610377576103766102a2565b5b5f84013567ffffffffffffffff811115610394576103936102a6565b5b6103a08682870161030b565b935093505060206103b3868287016102c0565b9150509250925092565b5f81519050919050565b5f82825260208201905092915050565b5f5b838110156103f45780820151818401526020810190506103d9565b5f8484015250505050565b5f601f19601f8301169050919050565b5f610419826103bd565b61042381856103c7565b93506104338185602086016103d7565b61043c816103ff565b840191505092915050565b5f60408201905061045a5f83018561027a565b818103602083015261046c818461040f565b90509392505050565b7f4e487b71000000000000000000000000000000000000000000000000000000005f52601160045260245ffd5b5f6104ac82610271565b91506104b783610271565b92508282019050808211156104cf576104ce610475565b5b92915050565b5f81905092915050565b828183375f83830152505050565b5f6104f883856104d5565b93506105058385846104df565b82840190509392505050565b5f61051d8284866104ed565b91508190509392505050565b7f4e487b71000000000000000000000000000000000000000000000000000000005f52604160045260245ffd5b7f4e487b71000000000000000000000000000000000000000000000000000000005f52602260045260245ffd5b5f600282049050600182168061059a57607f821691505b6020821081036105ad576105ac610556565b5b50919050565b5f819050815f5260205f209050919050565b5f6020601f8301049050919050565b5f82821b905092915050565b5f6008830261060f7fffffffffffffffffffffffffffffffffffffffffffffffffffffffffffffffff826105d4565b61061986836105d4565b95508019841693508086168417925050509392505050565b5f819050919050565b5f61065461064f61064a84610271565b610631565b610271565b9050919050565b5f819050919050565b61066d8361063a565b6106816106798261065b565b8484546105e0565b825550505050565b5f90565b610695610689565b6106a0818484610664565b505050565b5b818110156106c3576106b85f8261068d565b6001810190506106a6565b5050565b601f821115610708576106d9816105b3565b6106e2846105c5565b810160208510156106f1578190505b6107056106fd856105c5565b8301826106a5565b50505b505050565b5f82821c905092915050565b5f6107285f198460080261070d565b1980831691505092915050565b5f6107408383610719565b9150826002028217905092915050565b610759826103bd565b67ffffffffffffffff81111561077257610771610529565b5b61077c8254610583565b6107878282856106c7565b5f60209050601f8311600181146107b8575f84156107a6578287015190505b6107b08582610735565b865550610817565b601f1984166107c6866105b3565b5f5b828110156107ed578489015182556001820191506020850194506020810190506107c8565b8683101561080a5784890151610806601f891682610719565b8355505b6001600288020188555050505b50505050505056fea2646970667358221220324dd86d397ff61e6fa53adb0fcd8271ac3343331bc879864b9c3f7c0f08d51664736f6c63430008150033",
  "immutableReferences": {},
  "source": "// SPDX-License-Identifier: MIT\npragma solidity ^0.8.0;\n\nimport \"./SimpleStorage.sol\";\n\ncontract ExtraStorage is SimpleStorage {\n    function store(uint256 _favoriteNumber) public override {\n        favoriteNumber = _favoriteNumber + 5;\n    }\n}",
  "sourcePath": "/Users/reyansh/Code/Smart/dAppLearned/freecodecamp/storageFactory/contracts/ExtraStorage.sol",
  "compiler": {
    "name": "solc",
    "version": "0.8.21+commit.d9974bed.Emscripten.clang"
  },
  "schemaVersion": "3.4.16",
  "updatedAt": "2024-06-08T16:32:05.895Z",
  "devdoc": {
    "kind": "dev",
    "methods": {},
    "version": 1
  },
  "userdoc": {
    "kind": "user",
    "methods": {},
    "version": 1
  }
}