{
  "contractName": "Election",
  "abi": [
    {
      "inputs": [],
      "payable": false,
      "stateMutability": "nonpayable",
      "type": "constructor"
    },
    {
      "anonymous": false,
      "inputs": [
        {
          "indexed": false,
          "internalType": "uint256",
          "name": "_candidateId",
          "type": "uint256"
        }
      ],
      "name": "VotedEvent",
      "type": "event"
    },
    {
      "constant": true,
      "inputs": [
        {
          "internalType": "uint256",
          "name": "",
          "type": "uint256"
        }
      ],
      "name": "candidates",
      "outputs": [
        {
          "internalType": "uint256",
          "name": "id",
          "type": "uint256"
        },
        {
          "internalType": "string",
          "name": "name",
          "type": "string"
        },
        {
          "internalType": "uint256",
          "name": "voteCount",
          "type": "uint256"
        }
      ],
      "payable": false,
      "stateMutability": "view",
      "type": "function"
    },
    {
      "constant": true,
      "inputs": [],
      "name": "candidatesCount",
      "outputs": [
        {
          "internalType": "uint256",
          "name": "",
          "type": "uint256"
        }
      ],
      "payable": false,
      "stateMutability": "view",
      "type": "function"
    },
    {
      "constant": true,
      "inputs": [
        {
          "internalType": "address",
          "name": "",
          "type": "address"
        }
      ],
      "name": "voters",
      "outputs": [
        {
          "internalType": "bool",
          "name": "",
          "type": "bool"
        }
      ],
      "payable": false,
      "stateMutability": "view",
      "type": "function"
    },
    {
      "constant": false,
      "inputs": [
        {
          "internalType": "uint256",
          "name": "_candidateId",
          "type": "uint256"
        }
      ],
      "name": "vote",
      "outputs": [],
      "payable": false,
      "stateMutability": "nonpayable",
      "type": "function"
    },
    {
      "constant": false,
      "inputs": [
        {
          "internalType": "uint256",
          "name": "_candidateId",
          "type": "uint256"
        }
      ],
      "name": "resetVote",
      "outputs": [],
      "payable": false,
      "stateMutability": "nonpayable",
      "type": "function"
    }
  ],
  "bytecode": "0x608060405234801561001057600080fd5b506100556040518060400160405280600e81526020017f526579616e73682048616c64657200000000000000000000000000000000000081525061009e60201b60201c565b6100996040518060400160405280600e81526020017f416761737479612048616c64657200000000000000000000000000000000000081525061009e60201b60201c565b6101be565b6001600081548092919060010191905055506040518060600160405280600154815260200182815260200160008152506000806001548152602001908152602001600020600082015181600001556020820151816001019080519060200190610108929190610119565b506040820151816002015590505050565b828054600181600116156101000203166002900490600052602060002090601f016020900481019282601f1061015a57805160ff1916838001178555610188565b82800160010185558215610188579182015b8281111561018757825182559160200191906001019061016c565b5b5090506101959190610199565b5090565b6101bb91905b808211156101b757600081600090555060010161019f565b5090565b90565b610575806101cd6000396000f3fe608060405234801561001057600080fd5b50600436106100575760003560e01c80630121b93f1461005c5780630cc3b1c81461008a5780632d35a8a2146100b85780633477ee2e146100d6578063a3ec138d1461018b575b600080fd5b6100886004803603602081101561007257600080fd5b81019080803590602001909291905050506101e7565b005b6100b6600480360360208110156100a057600080fd5b81019080803590602001909291905050506103e2565b005b6100c0610458565b6040518082815260200191505060405180910390f35b610102600480360360208110156100ec57600080fd5b810190808035906020019092919050505061045e565b6040518084815260200180602001838152602001828103825284818151815260200191508051906020019080838360005b8381101561014e578082015181840152602081019050610133565b50505050905090810190601f16801561017b5780820380516001836020036101000a031916815260200191505b5094505050505060405180910390f35b6101cd600480360360208110156101a157600080fd5b81019080803573ffffffffffffffffffffffffffffffffffffffff169060200190929190505050610520565b604051808215151515815260200191505060405180910390f35b600260003373ffffffffffffffffffffffffffffffffffffffff1673ffffffffffffffffffffffffffffffffffffffff16815260200190815260200160002060009054906101000a900460ff16156102a7576040517f08c379a00000000000000000000000000000000000000000000000000000000081526004018080602001828103825260178152602001807f566f7465722068617320616c726561647920766f74656400000000000000000081525060200191505060405180910390fd5b6000811180156102b957506001548111155b61032b576040517f08c379a00000000000000000000000000000000000000000000000000000000081526004018080602001828103825260148152602001807f496e76616c69642063616e64696461746520496400000000000000000000000081525060200191505060405180910390fd5b6001600260003373ffffffffffffffffffffffffffffffffffffffff1673ffffffffffffffffffffffffffffffffffffffff16815260200190815260200160002060006101000a81548160ff021916908315150217905550600080828152602001908152602001600020600201600081548092919060010191905055507fe447c5464cb203c1da94b4db8588d3cbf313ce4a489122f6b88e87f465b2810e816040518082815260200191505060405180910390a150565b6000600260003373ffffffffffffffffffffffffffffffffffffffff1673ffffffffffffffffffffffffffffffffffffffff16815260200190815260200160002060006101000a81548160ff02191690831515021790555060008060008381526020019081526020016000206002018190555050565b60015481565b6000602052806000526040600020600091509050806000015490806001018054600181600116156101000203166002900480601f0160208091040260200160405190810160405280929190818152602001828054600181600116156101000203166002900480156105105780601f106104e557610100808354040283529160200191610510565b820191906000526020600020905b8154815290600101906020018083116104f357829003601f168201915b5050505050908060020154905083565b60026020528060005260406000206000915054906101000a900460ff168156fea265627a7a7231582094235c88bdc9597804332d6598ad92bd10859649609abe6a34d4d6b1435c0cf664736f6c63430005100032",
  "source": "// SPDX-License-Identifier: MIT\npragma solidity >= 0.4.22 < 0.8.0;\n\ncontract Election {\n\t// Model Candidate\n\tstruct Candidate {\n\t\tuint id;\n\t\tstring name;\n\t\tuint voteCount;\n\t}\n\n\t// Fetch Candidate\n\tmapping(uint => Candidate) public candidates;\n\n\t// Store Candidates count\n\tuint public candidatesCount;\n\n\t// Store voter has voted\n\tmapping(address => bool) public voters;\n\n\t// Vote event\n\tevent VotedEvent(uint _candidateId);\n\n\tconstructor() public {\n\t\taddCandidate(\"Reyansh Halder\");\n\t\taddCandidate(\"Agastya Halder\");\n\t}\n\n\tfunction addCandidate(string memory _name) private {\n\t\tcandidatesCount++;\n\t\tcandidates[candidatesCount] = Candidate(candidatesCount, _name, 0);\n\t}\n\n\t// Record vote\n\tfunction vote(uint _candidateId) public {\n\t\t// require that the voter haven't voted\n\t\trequire(!voters[msg.sender], \"Voter has already voted\");\n\t\t// require a valid candidate\n\t\trequire(_candidateId > 0 && _candidateId <= candidatesCount, \"Invalid candidate Id\");\n\n\t\t// record that voter has voted\n\t\tvoters[msg.sender] = true;\n\n\t\t// update candidate vote count\n\t\tcandidates[_candidateId].voteCount++;\n\n\t\t// emit the vote event\n\t\temit VotedEvent(_candidateId);\n\t}\n\n\t// Reset voting\n\tfunction resetVote(uint _candidateId) public {\n\t\tvoters[msg.sender] = false;\n\t\tcandidates[_candidateId].voteCount = 0;\n\t}\n}\n",
  "sourcePath": "/Users/reyansh/Code/Smart/dAppLearned/election/contracts/Election.sol",
  "compiler": {
    "name": "solc",
    "version": "0.5.16+commit.9c3226ce.Emscripten.clang"
  },
  "schemaVersion": "3.4.16",
  "updatedAt": "2024-05-19T06:21:26.364Z",
  "networkType": "ethereum",
  "devdoc": {
    "methods": {}
  },
  "userdoc": {
    "methods": {}
  }
}