{
  "contractName": "ArrayReplaceFromEnd",
  "abi": [
    {
      "inputs": [
        {
          "internalType": "uint256",
          "name": "",
          "type": "uint256"
        }
      ],
      "name": "arr",
      "outputs": [
        {
          "internalType": "uint256",
          "name": "",
          "type": "uint256"
        }
      ],
      "stateMutability": "view",
      "type": "function"
    },
    {
      "inputs": [
        {
          "internalType": "uint256",
          "name": "_index",
          "type": "uint256"
        }
      ],
      "name": "remove",
      "outputs": [],
      "stateMutability": "nonpayable",
      "type": "function"
    },
    {
      "inputs": [],
      "name": "test",
      "outputs": [],
      "stateMutability": "nonpayable",
      "type": "function"
    }
  ],
  "bytecode": "0x608060405234801561000f575f80fd5b5061049c8061001d5f395ff3fe608060405234801561000f575f80fd5b506004361061003f575f3560e01c80634cc822151461004357806371e5ee5f1461005f578063f8a8fd6d1461008f575b5f80fd5b61005d6004803603810190610058919061032c565b610099565b005b6100796004803603810190610074919061032c565b61010b565b6040516100869190610366565b60405180910390f35b61009761012a565b005b5f60015f805490506100ab91906103ac565b815481106100bc576100bb6103df565b5b905f5260205f2001545f82815481106100d8576100d76103df565b5b905f5260205f2001819055505f8054806100f5576100f461040c565b5b600190038181905f5260205f20015f9055905550565b5f8181548110610119575f80fd5b905f5260205f20015f915090505481565b6040518060800160405280600160ff168152602001600260ff168152602001600360ff168152602001600460ff168152505f90600461016a92919061028a565b506101756001610099565b60035f805490501461018a57610189610439565b5b60015f808154811061019f5761019e6103df565b5b905f5260205f200154146101b6576101b5610439565b5b60045f6001815481106101cc576101cb6103df565b5b905f5260205f200154146101e3576101e2610439565b5b60035f6002815481106101f9576101f86103df565b5b905f5260205f200154146102105761020f610439565b5b61021a6002610099565b60025f805490501461022f5761022e610439565b5b60015f8081548110610244576102436103df565b5b905f5260205f2001541461025b5761025a610439565b5b60045f600181548110610271576102706103df565b5b905f5260205f2001541461028857610287610439565b5b565b828054828255905f5260205f209081019282156102c9579160200282015b828111156102c8578251829060ff169055916020019190600101906102a8565b5b5090506102d691906102da565b5090565b5b808211156102f1575f815f9055506001016102db565b5090565b5f80fd5b5f819050919050565b61030b816102f9565b8114610315575f80fd5b50565b5f8135905061032681610302565b92915050565b5f60208284031215610341576103406102f5565b5b5f61034e84828501610318565b91505092915050565b610360816102f9565b82525050565b5f6020820190506103795f830184610357565b92915050565b7f4e487b71000000000000000000000000000000000000000000000000000000005f52601160045260245ffd5b5f6103b6826102f9565b91506103c1836102f9565b92508282039050818111156103d9576103d861037f565b5b92915050565b7f4e487b71000000000000000000000000000000000000000000000000000000005f52603260045260245ffd5b7f4e487b71000000000000000000000000000000000000000000000000000000005f52603160045260245ffd5b7f4e487b71000000000000000000000000000000000000000000000000000000005f52600160045260245ffdfea2646970667358221220e5c2a81294ab70b6ee17bb6b1a0c89eb9e91de5a120858e6dd412b83c94b5e7d64736f6c63430008150033",
  "immutableReferences": {},
  "source": "// SPDX-License-Identifier: MIT\npragma solidity ^0.8.0;\n\n// Remove array element by copying last element into to the place to remove\ncontract ArrayReplaceFromEnd {\n    uint256[] public arr;\n\n    function remove(uint256 _index) public {\n        // Deleting an element creates a gap in the array\n        // One way to keep the array compact is to move the last element into the palce to delete.\n        arr[_index] = arr[arr.length - 1];\n        // Now remove the last element\n        arr.pop();\n    }\n\n    function test() public {\n        arr = [1, 2, 3, 4];\n\n        remove(1);\n\n        // [1, 4, 3]\n        assert(arr.length == 3);\n        assert(arr[0] == 1);\n        assert(arr[1] == 4);\n        assert(arr[2] == 3);\n\n        remove(2);\n\n        // [1, 4];\n        assert(arr.length == 2);\n        assert(arr[0] == 1);\n        assert(arr[1] == 4);\n    }\n}\n",
  "sourcePath": "/Users/reyansh/Code/Smart/dAppLearned/SolidityByExample/contracts/010_ArrayReplaceFromEnd.sol",
  "compiler": {
    "name": "solc",
    "version": "0.8.21+commit.d9974bed.Emscripten.clang"
  },
  "schemaVersion": "3.4.16",
  "updatedAt": "2024-05-21T16:24:39.418Z",
  "devdoc": {
    "kind": "dev",
    "methods": {},
    "version": 1
  },
  "userdoc": {
    "kind": "user",
    "methods": {},
    "version": 1
  }
}