{
  "contractName": "Array",
  "abi": [
    {
      "inputs": [
        {
          "internalType": "uint256",
          "name": "",
          "type": "uint256"
        }
      ],
      "name": "arr",
      "outputs": [
        {
          "internalType": "uint256",
          "name": "",
          "type": "uint256"
        }
      ],
      "stateMutability": "view",
      "type": "function"
    },
    {
      "inputs": [
        {
          "internalType": "uint256",
          "name": "",
          "type": "uint256"
        }
      ],
      "name": "arr2",
      "outputs": [
        {
          "internalType": "uint256",
          "name": "",
          "type": "uint256"
        }
      ],
      "stateMutability": "view",
      "type": "function"
    },
    {
      "inputs": [
        {
          "internalType": "uint256",
          "name": "",
          "type": "uint256"
        }
      ],
      "name": "fixedArray",
      "outputs": [
        {
          "internalType": "uint256",
          "name": "",
          "type": "uint256"
        }
      ],
      "stateMutability": "view",
      "type": "function"
    },
    {
      "inputs": [
        {
          "internalType": "uint256",
          "name": "i",
          "type": "uint256"
        }
      ],
      "name": "get",
      "outputs": [
        {
          "internalType": "uint256",
          "name": "",
          "type": "uint256"
        }
      ],
      "stateMutability": "view",
      "type": "function"
    },
    {
      "inputs": [],
      "name": "getArr",
      "outputs": [
        {
          "internalType": "uint256[]",
          "name": "",
          "type": "uint256[]"
        }
      ],
      "stateMutability": "view",
      "type": "function"
    },
    {
      "inputs": [
        {
          "internalType": "uint256",
          "name": "_element",
          "type": "uint256"
        }
      ],
      "name": "push",
      "outputs": [],
      "stateMutability": "nonpayable",
      "type": "function"
    },
    {
      "inputs": [],
      "name": "pop",
      "outputs": [],
      "stateMutability": "nonpayable",
      "type": "function"
    },
    {
      "inputs": [],
      "name": "getLength",
      "outputs": [
        {
          "internalType": "uint256",
          "name": "",
          "type": "uint256"
        }
      ],
      "stateMutability": "view",
      "type": "function"
    },
    {
      "inputs": [
        {
          "internalType": "uint256",
          "name": "index",
          "type": "uint256"
        }
      ],
      "name": "remove",
      "outputs": [],
      "stateMutability": "nonpayable",
      "type": "function"
    },
    {
      "inputs": [],
      "name": "arrayInMemory",
      "outputs": [],
      "stateMutability": "nonpayable",
      "type": "function"
    }
  ],
  "bytecode": "0x60806040526040518060600160405280600160ff168152602001600260ff168152602001600360ff16815250600190600361003b92919061004d565b50348015610047575f80fd5b506100b8565b828054828255905f5260205f2090810192821561008c579160200282015b8281111561008b578251829060ff1690559160200191906001019061006b565b5b509050610099919061009d565b5090565b5b808211156100b4575f815f90555060010161009e565b5090565b6105a1806100c55f395ff3fe608060405234801561000f575f80fd5b506004361061009c575f3560e01c80639a5009ac116100645780639a5009ac14610142578063a4ece52c14610172578063be1c766b1461017c578063edf0099b1461019a578063fb8cbced146101ca5761009c565b80630878bfd8146100a05780634cc82215146100aa57806371e5ee5f146100c65780639507d39a146100f6578063959ac48414610126575b5f80fd5b6100a86101e8565b005b6100c460048036038101906100bf91906103ba565b610238565b005b6100e060048036038101906100db91906103ba565b610259565b6040516100ed91906103f4565b60405180910390f35b610110600480360381019061010b91906103ba565b610278565b60405161011d91906103f4565b60405180910390f35b610140600480360381019061013b91906103ba565b61029c565b005b61015c600480360381019061015791906103ba565b6102c4565b60405161016991906103f4565b60405180910390f35b61017a6102dd565b005b610184610303565b60405161019191906103f4565b60405180910390f35b6101b460048036038101906101af91906103ba565b61030e565b6040516101c191906103f4565b60405180910390f35b6101d261032e565b6040516101df91906104c4565b60405180910390f35b5f600567ffffffffffffffff811115610204576102036104e4565b5b6040519080825280602002602001820160405280156102325781602001602082028036833780820191505090505b50905050565b5f818154811061024b5761024a610511565b5b905f5260205f20015f905550565b5f8181548110610267575f80fd5b905f5260205f20015f915090505481565b5f80828154811061028c5761028b610511565b5b905f5260205f2001549050919050565b5f81908060018154018082558091505060019003905f5260205f20015f909190919091505550565b600281600a81106102d3575f80fd5b015f915090505481565b5f8054806102ee576102ed61053e565b5b600190038181905f5260205f20015f90559055565b5f8080549050905090565b6001818154811061031d575f80fd5b905f5260205f20015f915090505481565b60605f80548060200260200160405190810160405280929190818152602001828054801561037957602002820191905f5260205f20905b815481526020019060010190808311610365575b5050505050905090565b5f80fd5b5f819050919050565b61039981610387565b81146103a3575f80fd5b50565b5f813590506103b481610390565b92915050565b5f602082840312156103cf576103ce610383565b5b5f6103dc848285016103a6565b91505092915050565b6103ee81610387565b82525050565b5f6020820190506104075f8301846103e5565b92915050565b5f81519050919050565b5f82825260208201905092915050565b5f819050602082019050919050565b61043f81610387565b82525050565b5f6104508383610436565b60208301905092915050565b5f602082019050919050565b5f6104728261040d565b61047c8185610417565b935061048783610427565b805f5b838110156104b757815161049e8882610445565b97506104a98361045c565b92505060018101905061048a565b5085935050505092915050565b5f6020820190508181035f8301526104dc8184610468565b905092915050565b7f4e487b71000000000000000000000000000000000000000000000000000000005f52604160045260245ffd5b7f4e487b71000000000000000000000000000000000000000000000000000000005f52603260045260245ffd5b7f4e487b71000000000000000000000000000000000000000000000000000000005f52603160045260245ffdfea26469706673582212201a249477e69382c3e017bc7cdb7e2388da9a46eb35c5b344c076d1e5bb3a03ad64736f6c63430008150033",
  "immutableReferences": {},
  "source": "// SPDX-License-Identifier: MIT\npragma solidity ^0.8.0;\n\ncontract Array {\n    // Initialize array\n    uint256[] public arr;\n    uint256[] public arr2 = [1, 2, 3];\n    // Fixed sized array, all elements initialize to 0\n    uint256[10] public fixedArray;\n\n    function get(uint256 i) public view returns (uint256) {\n        return arr[i];\n    }\n\n    // Solidity can return the entire array.\n    // But this function should be avoided for\n    // arrays that can grow indefinitely in length.\n    function getArr() public view returns (uint256[] memory) {\n        return arr;\n    }\n\n    function push(uint256 _element) public {\n        // Append to array\n        // This will increase the array length by 1.\n        arr.push(_element);\n    }\n\n    function pop() public {\n        // Remove last element from array\n        // This will decrease the array length by 1\n        arr.pop();\n    }\n\n    function getLength() public view returns (uint256) {\n        return arr.length;\n    }\n\n    function remove(uint256 index) public {\n        // Delete does not change the array length.\n        // It resets the value at index to it's default value,\n        // in this case 0\n        delete arr[index];\n    }\n\n    function arrayInMemory() external {\n        uint256[] memory a = new uint256[](5);\n    }\n}\n",
  "sourcePath": "/Users/reyansh/Code/Smart/dAppLearned/SolidityByExample/contracts/008_Array.sol",
  "compiler": {
    "name": "solc",
    "version": "0.8.21+commit.d9974bed.Emscripten.clang"
  },
  "schemaVersion": "3.4.16",
  "updatedAt": "2024-05-21T16:24:39.407Z",
  "devdoc": {
    "kind": "dev",
    "methods": {},
    "version": 1
  },
  "userdoc": {
    "kind": "user",
    "methods": {},
    "version": 1
  }
}