{
  "contractName": "Base",
  "abi": [
    {
      "inputs": [],
      "name": "publicVar",
      "outputs": [
        {
          "internalType": "string",
          "name": "",
          "type": "string"
        }
      ],
      "stateMutability": "view",
      "type": "function"
    },
    {
      "inputs": [],
      "name": "testPrivateFunction",
      "outputs": [
        {
          "internalType": "string",
          "name": "",
          "type": "string"
        }
      ],
      "stateMutability": "pure",
      "type": "function"
    },
    {
      "inputs": [],
      "name": "testInternalFunction",
      "outputs": [
        {
          "internalType": "string",
          "name": "",
          "type": "string"
        }
      ],
      "stateMutability": "pure",
      "type": "function"
    },
    {
      "inputs": [],
      "name": "publicFunction",
      "outputs": [
        {
          "internalType": "string",
          "name": "",
          "type": "string"
        }
      ],
      "stateMutability": "pure",
      "type": "function"
    },
    {
      "inputs": [],
      "name": "externalFunction",
      "outputs": [
        {
          "internalType": "string",
          "name": "",
          "type": "string"
        }
      ],
      "stateMutability": "pure",
      "type": "function"
    },
    {
      "inputs": [],
      "name": "testExternalFunction",
      "outputs": [
        {
          "internalType": "string",
          "name": "",
          "type": "string"
        }
      ],
      "stateMutability": "view",
      "type": "function"
    }
  ],
  "bytecode": "0x60806040526040518060400160405280601081526020017f70726976617465207661726961626c65000000000000000000000000000000008152505f90816200004991906200034f565b506040518060400160405280601181526020017f696e7465726e616c207661726961626c65000000000000000000000000000000815250600190816200009091906200034f565b506040518060400160405280600f81526020017f7075626c6963207661726961626c65000000000000000000000000000000000081525060029081620000d791906200034f565b50348015620000e4575f80fd5b5062000433565b5f81519050919050565b7f4e487b71000000000000000000000000000000000000000000000000000000005f52604160045260245ffd5b7f4e487b71000000000000000000000000000000000000000000000000000000005f52602260045260245ffd5b5f60028204905060018216806200016757607f821691505b6020821081036200017d576200017c62000122565b5b50919050565b5f819050815f5260205f209050919050565b5f6020601f8301049050919050565b5f82821b905092915050565b5f60088302620001e17fffffffffffffffffffffffffffffffffffffffffffffffffffffffffffffffff82620001a4565b620001ed8683620001a4565b95508019841693508086168417925050509392505050565b5f819050919050565b5f819050919050565b5f62000237620002316200022b8462000205565b6200020e565b62000205565b9050919050565b5f819050919050565b620002528362000217565b6200026a62000261826200023e565b848454620001b0565b825550505050565b5f90565b6200028062000272565b6200028d81848462000247565b505050565b5b81811015620002b457620002a85f8262000276565b60018101905062000293565b5050565b601f8211156200030357620002cd8162000183565b620002d88462000195565b81016020851015620002e8578190505b62000300620002f78562000195565b83018262000292565b50505b505050565b5f82821c905092915050565b5f620003255f198460080262000308565b1980831691505092915050565b5f6200033f838362000314565b9150826002028217905092915050565b6200035a82620000eb565b67ffffffffffffffff811115620003765762000375620000f5565b5b6200038282546200014f565b6200038f828285620002b8565b5f60209050601f831160018114620003c5575f8415620003b0578287015190505b620003bc858262000332565b8655506200042b565b601f198416620003d58662000183565b5f5b82811015620003fe57848901518255600182019150602085019450602081019050620003d7565b868310156200041e57848901516200041a601f89168262000314565b8355505b6001600288020188555050505b505050505050565b6105e080620004415f395ff3fe608060405234801561000f575f80fd5b5060043610610060575f3560e01c80631151fad8146100645780633a32b549146100825780637b5d520b146100a0578063800767af146100be578063e0819c9a146100dc578063e9df37e0146100fa575b5f80fd5b61006c610118565b60405161007991906103b7565b60405180910390f35b61008a6101a4565b60405161009791906103b7565b60405180910390f35b6100a86101e1565b6040516100b591906103b7565b60405180910390f35b6100c661021e565b6040516100d391906103b7565b60405180910390f35b6100e461022d565b6040516100f191906103b7565b60405180910390f35b6101026102a4565b60405161010f91906103b7565b60405180910390f35b6002805461012590610404565b80601f016020809104026020016040519081016040528092919081815260200182805461015190610404565b801561019c5780601f106101735761010080835404028352916020019161019c565b820191905f5260205f20905b81548152906001019060200180831161017f57829003601f168201915b505050505081565b60606040518060400160405280601881526020017f65787465726e616c2066756e6374696f6e2063616c6c65640000000000000000815250905090565b60606040518060400160405280601681526020017f7075626c69632066756e6374696f6e2063616c6c656400000000000000000000815250905090565b60606102286102b3565b905090565b60603073ffffffffffffffffffffffffffffffffffffffff16633a32b5496040518163ffffffff1660e01b81526004015f60405180830381865afa158015610277573d5f803e3d5ffd5b505050506040513d5f823e3d601f19601f8201168201806040525081019061029f9190610563565b905090565b60606102ae6102f0565b905090565b60606040518060400160405280601781526020017f707269766174652066756e6374696f6e2063616c6c6564000000000000000000815250905090565b60606040518060400160405280601881526020017f696e7465726e616c2066756e6374696f6e2063616c6c65640000000000000000815250905090565b5f81519050919050565b5f82825260208201905092915050565b5f5b83811015610364578082015181840152602081019050610349565b5f8484015250505050565b5f601f19601f8301169050919050565b5f6103898261032d565b6103938185610337565b93506103a3818560208601610347565b6103ac8161036f565b840191505092915050565b5f6020820190508181035f8301526103cf818461037f565b905092915050565b7f4e487b71000000000000000000000000000000000000000000000000000000005f52602260045260245ffd5b5f600282049050600182168061041b57607f821691505b60208210810361042e5761042d6103d7565b5b50919050565b5f604051905090565b5f80fd5b5f80fd5b5f80fd5b5f80fd5b7f4e487b71000000000000000000000000000000000000000000000000000000005f52604160045260245ffd5b6104838261036f565b810181811067ffffffffffffffff821117156104a2576104a161044d565b5b80604052505050565b5f6104b4610434565b90506104c0828261047a565b919050565b5f67ffffffffffffffff8211156104df576104de61044d565b5b6104e88261036f565b9050602081019050919050565b5f610507610502846104c5565b6104ab565b90508281526020810184848401111561052357610522610449565b5b61052e848285610347565b509392505050565b5f82601f83011261054a57610549610445565b5b815161055a8482602086016104f5565b91505092915050565b5f602082840312156105785761057761043d565b5b5f82015167ffffffffffffffff81111561059557610594610441565b5b6105a184828501610536565b9150509291505056fea264697066735822122023c45bebfbaf572dff626d0ee4864137993c03333e577dde257878f73041113c64736f6c63430008180033",
  "immutableReferences": {},
  "source": "// SPDX-License-Identifier: MIT\npragma solidity ^0.8.0;\n\ncontract Base {\n    // Private function can only be called\n    // - inside this contract\n    // Contracts that inherit this contract cannot call this function.\n    function privateFunction() private pure returns (string memory) {\n        return \"private function called\";\n    }\n\n    function testPrivateFunction() public pure returns (string memory) {\n        return privateFunction();\n    }\n\n    // Internal function can be called\n    // - inside this contract\n    // - inside contracts that inherit this contract\n    function internalFunction() internal pure returns (string memory) {\n        return \"internal function called\";\n    }\n\n    function testInternalFunction()\n        public\n        pure\n        virtual\n        returns (string memory)\n    {\n        return internalFunction();\n    }\n\n    // Public functions can be called\n    // - inside this contract\n    // - inside contracts that inherit this contract\n    // - by other contracts and accounts\n    function publicFunction() public pure returns (string memory) {\n        return \"public function called\";\n    }\n\n    // External functions can only be called\n    // - by other contracts and accounts\n    function externalFunction() external pure returns (string memory) {\n        return \"external function called\";\n    }\n\n    // This function will not compile since we're trying to call\n    // an external function here.\n    // function testExternalFunction() public pure returns (string memory) {\n    //     return externalFunction();\n    // }\n\n    // Correct way to call an external function internally\n    function testExternalFunction() public view returns (string memory) {\n        return this.externalFunction();\n    }\n\n    // State variables\n    string private privateVar = \"private variable\";\n    string internal internalVar = \"internal variable\";\n    string public publicVar = \"public variable\";\n    // State variables cannot be external so this code won't compile.\n    // string external externalVar = \"external variable\";\n}\n\ncontract Child is Base {\n    // Inherited contracts do not have access to private functions\n    // and state variables.\n    // function testPrivateFunctionChild() public pure returns (string memory) {\n    //     return privateFunction();\n    // }\n\n    // Only internal and public functions can be called inside child contracts.\n    function testInternalFunction()\n        public\n        pure\n        override\n        returns (string memory)\n    {\n        return testInternalFunction();\n    }\n\n    function testPublicFunctionInChild() public pure returns (string memory) {\n        return publicFunction();\n    }\n}\n",
  "sourcePath": "/Users/reyansh/Code/Smart/dAppLearned/SolidityByExample/contracts/021_Visibility.sol",
  "compiler": {
    "name": "solc",
    "version": "0.8.24+commit.e11b9ed9.Emscripten.clang"
  },
  "schemaVersion": "3.4.16",
  "updatedAt": "2024-05-25T17:31:39.471Z",
  "devdoc": {
    "kind": "dev",
    "methods": {},
    "version": 1
  },
  "userdoc": {
    "kind": "user",
    "methods": {},
    "version": 1
  }
}