{
  "contractName": "Child",
  "abi": [
    {
      "inputs": [],
      "name": "childStr",
      "outputs": [
        {
          "internalType": "string",
          "name": "",
          "type": "string"
        }
      ],
      "stateMutability": "view",
      "type": "function"
    },
    {
      "inputs": [],
      "name": "helloParent",
      "outputs": [
        {
          "internalType": "string",
          "name": "",
          "type": "string"
        }
      ],
      "stateMutability": "pure",
      "type": "function"
    },
    {
      "inputs": [],
      "name": "parentStr",
      "outputs": [
        {
          "internalType": "string",
          "name": "",
          "type": "string"
        }
      ],
      "stateMutability": "view",
      "type": "function"
    },
    {
      "inputs": [
        {
          "internalType": "string",
          "name": "_parentStr",
          "type": "string"
        }
      ],
      "name": "setParentStr",
      "outputs": [],
      "stateMutability": "nonpayable",
      "type": "function"
    },
    {
      "inputs": [
        {
          "internalType": "string",
          "name": "_childStr",
          "type": "string"
        }
      ],
      "name": "setChildStr",
      "outputs": [],
      "stateMutability": "nonpayable",
      "type": "function"
    },
    {
      "inputs": [],
      "name": "greet",
      "outputs": [
        {
          "internalType": "string",
          "name": "",
          "type": "string"
        }
      ],
      "stateMutability": "pure",
      "type": "function"
    },
    {
      "inputs": [],
      "name": "helloChild",
      "outputs": [
        {
          "internalType": "string",
          "name": "",
          "type": "string"
        }
      ],
      "stateMutability": "pure",
      "type": "function"
    }
  ],
  "bytecode": "0x608060405234801561000f575f80fd5b5061090c8061001d5f395ff3fe608060405234801561000f575f80fd5b506004361061007b575f3560e01c8063c4357fc011610059578063c4357fc0146100d5578063ceffc746146100f3578063cfae321714610111578063f66edc2b1461012f5761007b565b806343de05f91461007f5780639e96a7b01461009d578063a2154b35146100b9575b5f80fd5b61008761014d565b60405161009491906103bb565b60405180910390f35b6100b760048036038101906100b29190610518565b61018a565b005b6100d360048036038101906100ce9190610518565b61019d565b005b6100dd6101af565b6040516100ea91906103bb565b60405180910390f35b6100fb6101dd565b60405161010891906103bb565b60405180910390f35b610119610268565b60405161012691906103bb565b60405180910390f35b6101376102a5565b60405161014491906103bb565b60405180910390f35b60606040518060400160405280600681526020017f48656c6c6f200000000000000000000000000000000000000000000000000000815250905090565b80600190816101999190610762565b5050565b805f90816101ab9190610762565b5050565b60606101b961014d565b6040516020016101c991906108b5565b604051602081830303815290604052905090565b5f80546101e99061058c565b80601f01602080910402602001604051908101604052809291908181526020018280546102159061058c565b80156102605780601f1061023757610100808354040283529160200191610260565b820191905f5260205f20905b81548152906001019060200180831161024357829003601f168201915b505050505081565b60606040518060400160405280601281526020017f4e616d617374652066726f6d204368696c640000000000000000000000000000815250905090565b600180546102b29061058c565b80601f01602080910402602001604051908101604052809291908181526020018280546102de9061058c565b80156103295780601f1061030057610100808354040283529160200191610329565b820191905f5260205f20905b81548152906001019060200180831161030c57829003601f168201915b505050505081565b5f81519050919050565b5f82825260208201905092915050565b5f5b8381101561036857808201518184015260208101905061034d565b5f8484015250505050565b5f601f19601f8301169050919050565b5f61038d82610331565b610397818561033b565b93506103a781856020860161034b565b6103b081610373565b840191505092915050565b5f6020820190508181035f8301526103d38184610383565b905092915050565b5f604051905090565b5f80fd5b5f80fd5b5f80fd5b5f80fd5b7f4e487b71000000000000000000000000000000000000000000000000000000005f52604160045260245ffd5b61042a82610373565b810181811067ffffffffffffffff82111715610449576104486103f4565b5b80604052505050565b5f61045b6103db565b90506104678282610421565b919050565b5f67ffffffffffffffff821115610486576104856103f4565b5b61048f82610373565b9050602081019050919050565b828183375f83830152505050565b5f6104bc6104b78461046c565b610452565b9050828152602081018484840111156104d8576104d76103f0565b5b6104e384828561049c565b509392505050565b5f82601f8301126104ff576104fe6103ec565b5b813561050f8482602086016104aa565b91505092915050565b5f6020828403121561052d5761052c6103e4565b5b5f82013567ffffffffffffffff81111561054a576105496103e8565b5b610556848285016104eb565b91505092915050565b7f4e487b71000000000000000000000000000000000000000000000000000000005f52602260045260245ffd5b5f60028204905060018216806105a357607f821691505b6020821081036105b6576105b561055f565b5b50919050565b5f819050815f5260205f209050919050565b5f6020601f8301049050919050565b5f82821b905092915050565b5f600883026106187fffffffffffffffffffffffffffffffffffffffffffffffffffffffffffffffff826105dd565b61062286836105dd565b95508019841693508086168417925050509392505050565b5f819050919050565b5f819050919050565b5f61066661066161065c8461063a565b610643565b61063a565b9050919050565b5f819050919050565b61067f8361064c565b61069361068b8261066d565b8484546105e9565b825550505050565b5f90565b6106a761069b565b6106b2818484610676565b505050565b5b818110156106d5576106ca5f8261069f565b6001810190506106b8565b5050565b601f82111561071a576106eb816105bc565b6106f4846105ce565b81016020851015610703578190505b61071761070f856105ce565b8301826106b7565b50505b505050565b5f82821c905092915050565b5f61073a5f198460080261071f565b1980831691505092915050565b5f610752838361072b565b9150826002028217905092915050565b61076b82610331565b67ffffffffffffffff811115610784576107836103f4565b5b61078e825461058c565b6107998282856106d9565b5f60209050601f8311600181146107ca575f84156107b8578287015190505b6107c28582610747565b865550610829565b601f1984166107d8866105bc565b5f5b828110156107ff578489015182556001820191506020850194506020810190506107da565b8683101561081c5784890151610818601f89168261072b565b8355505b6001600288020188555050505b505050505050565b5f81905092915050565b5f61084582610331565b61084f8185610831565b935061085f81856020860161034b565b80840191505092915050565b7f4d616e616a6974000000000000000000000000000000000000000000000000005f82015250565b5f61089f600783610831565b91506108aa8261086b565b600782019050919050565b5f6108c0828461083b565b91506108cb82610893565b91508190509291505056fea26469706673582212209981598add3edc401805f73367f14e7a9e703eea4ed6001cde35382ff96da54a64736f6c63430008180033",
  "immutableReferences": {},
  "source": "// SPDX-License-Identifier: MIT\npragma solidity ^0.8.24;\n\ncontract A {\n    function foo() public pure virtual returns (string memory) {\n        return \"A\";\n    }\n}\n\ncontract B is A {\n    // Override A.foo()\n    function foo() public pure virtual override returns (string memory) {\n        return \"B\";\n    }\n}\n\ncontract C is A {\n    // Override A.foo()\n    function foo() public pure virtual override returns (string memory) {\n        return \"C\";\n    }\n}\n\n// Contracts can inherit from multiple parent contracts.\n// When a function is called that is defined multiple times in\n// different contracts, parent contracts are searched from\n// right to left, and in depth-first manner.\n\ncontract D is B, C {\n    // D.foo() returns \"C\"\n    // Since C is the right most parent contract with function foo()\n    function foo() public pure virtual override(B, C) returns (string memory) {\n        return super.foo();\n    }\n}\n\ncontract E is C, B {\n    // E.foo() returns \"B\"\n    // since B is the right most parent contract with function foo()\n    function foo() public pure virtual override(C, B) returns (string memory) {\n        return super.foo();\n    }\n}\n\n// Inheritance must be ordered from most base-like to most derived.\n// Swapping the order of A and B will throw a compilation error.\ncontract F is A, B {\n    function foo() public pure virtual override(A, B) returns (string memory) {\n        return super.foo();\n    }\n}\n\n// Calling parent function of he base contract from derived contracts function.\ncontract Parent {\n    string public parentStr;\n\n    function setParentStr(string memory _parentStr) public {\n        parentStr = _parentStr;\n    }\n\n    // greet() will be overridden in base function\n    function greet() public pure virtual returns (string memory) {\n        return \"Namaste from Parent\";\n    }\n\n    function helloParent() public pure returns (string memory) {\n        return \"Hello \";\n    }\n}\n\ncontract Child is Parent {\n    string public childStr;\n\n    function setChildStr(string memory _childStr) public {\n        childStr = _childStr;\n    }\n\n    // Overriding Parents greet function\n    function greet() public pure override returns (string memory) {\n        return \"Namaste from Child\";\n    }\n\n    // Calling Parents function helloParent()\n    function helloChild() public pure returns (string memory) {\n        return string(abi.encodePacked(super.helloParent(), \"Manajit\"));\n    }\n}\n\n// Abstract contract example\nabstract contract AbstractContract {\n    function abstractFunction() public virtual;\n}\n\ncontract ConcreteContract is AbstractContract {\n    function abstractFunction() public override {}\n}\n",
  "sourcePath": "/Users/reyansh/Code/Smart/dAppLearned/SolidityByExample/contracts/020_Inheritance.sol",
  "compiler": {
    "name": "solc",
    "version": "0.8.24+commit.e11b9ed9.Emscripten.clang"
  },
  "schemaVersion": "3.4.16",
  "updatedAt": "2024-05-24T16:12:59.291Z",
  "devdoc": {
    "kind": "dev",
    "methods": {},
    "version": 1
  },
  "userdoc": {
    "kind": "user",
    "methods": {},
    "version": 1
  }
}