{
  "contractName": "Constant",
  "abi": [
    {
      "inputs": [],
      "name": "count",
      "outputs": [
        {
          "internalType": "uint256",
          "name": "",
          "type": "uint256"
        }
      ],
      "stateMutability": "view",
      "type": "function"
    },
    {
      "inputs": [],
      "name": "get",
      "outputs": [
        {
          "internalType": "uint256",
          "name": "",
          "type": "uint256"
        }
      ],
      "stateMutability": "view",
      "type": "function"
    },
    {
      "inputs": [
        {
          "internalType": "uint256",
          "name": "_count",
          "type": "uint256"
        }
      ],
      "name": "set",
      "outputs": [],
      "stateMutability": "nonpayable",
      "type": "function"
    },
    {
      "inputs": [],
      "name": "increment",
      "outputs": [],
      "stateMutability": "nonpayable",
      "type": "function"
    },
    {
      "inputs": [],
      "name": "decrement",
      "outputs": [],
      "stateMutability": "nonpayable",
      "type": "function"
    }
  ],
  "bytecode": "0x608060405234801561000f575f80fd5b506102628061001d5f395ff3fe608060405234801561000f575f80fd5b5060043610610055575f3560e01c806306661abd146100595780632baeceb71461007757806360fe47b1146100815780636d4ce63c1461009d578063d09de08a146100bb575b5f80fd5b6100616100c5565b60405161006e9190610127565b60405180910390f35b61007f6100ca565b005b61009b6004803603810190610096919061016e565b6100e4565b005b6100a56100ed565b6040516100b29190610127565b60405180910390f35b6100c36100f5565b005b5f5481565b60015f808282546100db91906101c6565b92505081905550565b805f8190555050565b5f8054905090565b60015f8082825461010691906101f9565b92505081905550565b5f819050919050565b6101218161010f565b82525050565b5f60208201905061013a5f830184610118565b92915050565b5f80fd5b61014d8161010f565b8114610157575f80fd5b50565b5f8135905061016881610144565b92915050565b5f6020828403121561018357610182610140565b5b5f6101908482850161015a565b91505092915050565b7f4e487b71000000000000000000000000000000000000000000000000000000005f52601160045260245ffd5b5f6101d08261010f565b91506101db8361010f565b92508282039050818111156101f3576101f2610199565b5b92915050565b5f6102038261010f565b915061020e8361010f565b925082820190508082111561022657610225610199565b5b9291505056fea2646970667358221220c485690ec0a012346faa811db142cecd5e425622cfd7cb2da17b1aceaf97346764736f6c63430008150033",
  "immutableReferences": {},
  "source": "// SPDX-License-Identifier: MIT\npragma solidity ^0.8.0;\n\ncontract Constant {\n    uint public count;\n\n    function get() public view returns (uint) {\n        return count;\n    }\n\n    function set(uint _count) public {\n        count = _count;\n    }\n\n    function increment() public {\n        count += 1;\n    }\n\n    function decrement() public {\n        count -= 1;\n    }\n}\n",
  "sourcePath": "/Users/reyansh/Code/Smart/dAppLearned/SolidityByExample/contracts/Constant.sol",
  "compiler": {
    "name": "solc",
    "version": "0.8.21+commit.d9974bed.Emscripten.clang"
  },
  "schemaVersion": "3.4.16",
  "updatedAt": "2024-05-21T04:47:12.709Z",
  "devdoc": {
    "kind": "dev",
    "methods": {},
    "version": 1
  },
  "userdoc": {
    "kind": "user",
    "methods": {},
    "version": 1
  }
}