{
  "contractName": "D",
  "abi": [
    {
      "inputs": [],
      "stateMutability": "nonpayable",
      "type": "constructor"
    },
    {
      "inputs": [],
      "name": "designation",
      "outputs": [
        {
          "internalType": "string",
          "name": "",
          "type": "string"
        }
      ],
      "stateMutability": "view",
      "type": "function"
    },
    {
      "inputs": [],
      "name": "name",
      "outputs": [
        {
          "internalType": "string",
          "name": "",
          "type": "string"
        }
      ],
      "stateMutability": "view",
      "type": "function"
    }
  ],
  "bytecode": "0x608060405234801561000f575f80fd5b506040518060400160405280600581526020017f46727569740000000000000000000000000000000000000000000000000000008152506040518060400160405280600881526020017f436f636f616e7574000000000000000000000000000000000000000000000000815250805f908161008a91906102dc565b5050806001908161009b91906102dc565b50506103ab565b5f81519050919050565b7f4e487b71000000000000000000000000000000000000000000000000000000005f52604160045260245ffd5b7f4e487b71000000000000000000000000000000000000000000000000000000005f52602260045260245ffd5b5f600282049050600182168061011d57607f821691505b6020821081036101305761012f6100d9565b5b50919050565b5f819050815f5260205f209050919050565b5f6020601f8301049050919050565b5f82821b905092915050565b5f600883026101927fffffffffffffffffffffffffffffffffffffffffffffffffffffffffffffffff82610157565b61019c8683610157565b95508019841693508086168417925050509392505050565b5f819050919050565b5f819050919050565b5f6101e06101db6101d6846101b4565b6101bd565b6101b4565b9050919050565b5f819050919050565b6101f9836101c6565b61020d610205826101e7565b848454610163565b825550505050565b5f90565b610221610215565b61022c8184846101f0565b505050565b5b8181101561024f576102445f82610219565b600181019050610232565b5050565b601f8211156102945761026581610136565b61026e84610148565b8101602085101561027d578190505b61029161028985610148565b830182610231565b50505b505050565b5f82821c905092915050565b5f6102b45f1984600802610299565b1980831691505092915050565b5f6102cc83836102a5565b9150826002028217905092915050565b6102e5826100a2565b67ffffffffffffffff8111156102fe576102fd6100ac565b5b6103088254610106565b610313828285610253565b5f60209050601f831160018114610344575f8415610332578287015190505b61033c85826102c1565b8655506103a3565b601f19841661035286610136565b5f5b8281101561037957848901518255600182019150602085019450602081019050610354565b868310156103965784890151610392601f8916826102a5565b8355505b6001600288020188555050505b505050505050565b6102c8806103b85f395ff3fe608060405234801561000f575f80fd5b5060043610610034575f3560e01c806306fdde03146100385780630c1a350e14610056575b5f80fd5b610040610074565b60405161004d9190610215565b60405180910390f35b61005e6100ff565b60405161006b9190610215565b60405180910390f35b5f805461008090610262565b80601f01602080910402602001604051908101604052809291908181526020018280546100ac90610262565b80156100f75780601f106100ce576101008083540402835291602001916100f7565b820191905f5260205f20905b8154815290600101906020018083116100da57829003601f168201915b505050505081565b6001805461010c90610262565b80601f016020809104026020016040519081016040528092919081815260200182805461013890610262565b80156101835780601f1061015a57610100808354040283529160200191610183565b820191905f5260205f20905b81548152906001019060200180831161016657829003601f168201915b505050505081565b5f81519050919050565b5f82825260208201905092915050565b5f5b838110156101c25780820151818401526020810190506101a7565b5f8484015250505050565b5f601f19601f8301169050919050565b5f6101e78261018b565b6101f18185610195565b93506102018185602086016101a5565b61020a816101cd565b840191505092915050565b5f6020820190508181035f83015261022d81846101dd565b905092915050565b7f4e487b71000000000000000000000000000000000000000000000000000000005f52602260045260245ffd5b5f600282049050600182168061027957607f821691505b60208210810361028c5761028b610235565b5b5091905056fea264697066735822122072a0ed328b7e9caee2f25c365371b843dd40e787e137dc881a87e73d5c2ca2c864736f6c63430008150033",
  "immutableReferences": {},
  "source": "// SPDX-License-Identifier: MIT\npragma solidity ^0.8.0;\n\ncontract X {\n    string public name;\n\n    constructor(string memory _name) {\n        name = _name;\n    }\n}\n\ncontract Y {\n    string public designation;\n\n    constructor(string memory _desig) {\n        designation = _desig;\n    }\n}\n\n// There are 2 ways to initialize parent contract with parameters.\n\n// Pass the parameters here in the inheritance list.\ncontract B is X(\"Bottleguard\"), Y(\"Vegetable\") {}\n\ncontract C is X, Y {\n    // Pass the parameters here in the constructor,\n    // similar to function modifiers.\n    constructor(string memory _name, string memory _desig) X(_name) Y(_desig) {}\n}\n\n// Parent constructors are always called in the order of inheritance\n// regardless of the order of parent contracts listed in the\n// constructor of the child contract.\n\n// Order of constructors called:\n// 1. X\n// 2. Y\n// 3. D\ncontract D is X, Y {\n    constructor() X(\"Cocoanut\") Y(\"Fruit\") {}\n}\n\n// Order of constructors called:\n// 1. X\n// 2. Y\n// 3. E\ncontract E is X, Y {\n    constructor() Y(\"Material\") X(\"Stone\") {}\n}\n",
  "sourcePath": "/Users/reyansh/Code/Smart/dAppLearned/SolidityByExample/contracts/019_Constructor.sol",
  "compiler": {
    "name": "solc",
    "version": "0.8.21+commit.d9974bed.Emscripten.clang"
  },
  "schemaVersion": "3.4.16",
  "updatedAt": "2024-05-24T12:40:05.124Z",
  "devdoc": {
    "kind": "dev",
    "methods": {},
    "version": 1
  },
  "userdoc": {
    "kind": "user",
    "methods": {},
    "version": 1
  }
}