{
  "contractName": "Enum2",
  "abi": [
    {
      "inputs": [],
      "name": "status",
      "outputs": [
        {
          "internalType": "enum EnumDeclaration.Status",
          "name": "",
          "type": "uint8"
        }
      ],
      "stateMutability": "view",
      "type": "function"
    }
  ],
  "bytecode": "0x608060405234801561000f575f80fd5b5061010b8061001d5f395ff3fe6080604052348015600e575f80fd5b50600436106026575f3560e01c8063200d2ed214602a575b5f80fd5b60306044565b604051603b919060be565b60405180910390f35b5f8054906101000a900460ff1681565b7f4e487b71000000000000000000000000000000000000000000000000000000005f52602160045260245ffd5b60058110608f57608e6054565b5b50565b5f819050609d826081565b919050565b5f60aa826092565b9050919050565b60b88160a2565b82525050565b5f60208201905060cf5f83018460b1565b9291505056fea26469706673582212207c22471a44e5ae15420b01221f7030ce25da4ba0f8155e552d22f51b6b70c16c64736f6c63430008150033",
  "immutableReferences": {},
  "source": "// SPDX-License-Identifier: MIT\npragma solidity ^0.8.0;\n\nimport \"./012_EnumDeclaration.sol\";\n\ncontract Enum2 {\n    EnumDeclaration.Status public status;\n}\n",
  "sourcePath": "/Users/reyansh/Code/Smart/dAppLearned/SolidityByExample/contracts/012_Enum2.sol",
  "compiler": {
    "name": "solc",
    "version": "0.8.21+commit.d9974bed.Emscripten.clang"
  },
  "schemaVersion": "3.4.16",
  "updatedAt": "2024-05-21T16:24:39.425Z",
  "devdoc": {
    "kind": "dev",
    "methods": {},
    "version": 1
  },
  "userdoc": {
    "kind": "user",
    "methods": {},
    "version": 1
  }
}