{
  "contractName": "Error",
  "abi": [
    {
      "inputs": [
        {
          "internalType": "uint256",
          "name": "balance",
          "type": "uint256"
        },
        {
          "internalType": "uint256",
          "name": "withdrawAmount",
          "type": "uint256"
        }
      ],
      "name": "InsufficientBalance",
      "type": "error"
    },
    {
      "inputs": [],
      "name": "num",
      "outputs": [
        {
          "internalType": "uint256",
          "name": "",
          "type": "uint256"
        }
      ],
      "stateMutability": "view",
      "type": "function"
    },
    {
      "inputs": [
        {
          "internalType": "uint256",
          "name": "i",
          "type": "uint256"
        }
      ],
      "name": "testRequire",
      "outputs": [],
      "stateMutability": "pure",
      "type": "function"
    },
    {
      "inputs": [
        {
          "internalType": "uint256",
          "name": "_i",
          "type": "uint256"
        }
      ],
      "name": "testRevert",
      "outputs": [],
      "stateMutability": "pure",
      "type": "function"
    },
    {
      "inputs": [],
      "name": "testAssert",
      "outputs": [],
      "stateMutability": "view",
      "type": "function"
    },
    {
      "inputs": [
        {
          "internalType": "uint256",
          "name": "_withdrawAmount",
          "type": "uint256"
        }
      ],
      "name": "testForCustomError",
      "outputs": [],
      "stateMutability": "view",
      "type": "function"
    }
  ],
  "bytecode": "0x608060405234801561000f575f80fd5b506103bc8061001d5f395ff3fe608060405234801561000f575f80fd5b5060043610610055575f3560e01c806320987767146100595780632b813bc0146100755780632c1ba6651461007f5780634e70b1dc1461009b578063b8bd717f146100b9575b5f80fd5b610073600480360381019061006e91906101ff565b6100d5565b005b61007d61011b565b005b610099600480360381019061009491906101ff565b61012e565b005b6100a361017d565b6040516100b09190610239565b60405180910390f35b6100d360048036038101906100ce91906101ff565b610182565b005b600a8111610118576040517f08c379a000000000000000000000000000000000000000000000000000000000815260040161010f906102ac565b60405180910390fd5b50565b5f80541461012c5761012b6102ca565b5b565b5f479050818110156101795780826040517fcf4791810000000000000000000000000000000000000000000000000000000081526004016101709291906102f7565b60405180910390fd5b5050565b5f5481565b600a81116101c5576040517f08c379a00000000000000000000000000000000000000000000000000000000081526004016101bc90610368565b60405180910390fd5b50565b5f80fd5b5f819050919050565b6101de816101cc565b81146101e8575f80fd5b50565b5f813590506101f9816101d5565b92915050565b5f60208284031215610214576102136101c8565b5b5f610221848285016101eb565b91505092915050565b610233816101cc565b82525050565b5f60208201905061024c5f83018461022a565b92915050565b5f82825260208201905092915050565b7f696e707574206d7573742062652067726561746572207468616e2031300000005f82015250565b5f610296601d83610252565b91506102a182610262565b602082019050919050565b5f6020820190508181035f8301526102c38161028a565b9050919050565b7f4e487b71000000000000000000000000000000000000000000000000000000005f52600160045260245ffd5b5f60408201905061030a5f83018561022a565b610317602083018461022a565b9392505050565b7f696e707574206d757374206265206772656174657220746861742031300000005f82015250565b5f610352601d83610252565b915061035d8261031e565b602082019050919050565b5f6020820190508181035f83015261037f81610346565b905091905056fea264697066735822122076941f5d2bc22309cada69fd79500bb1a38c9e7b77a94a3cbbef13042297e8e264736f6c63430008150033",
  "immutableReferences": {},
  "source": "// SPDX-License-Identifier: MIT\npragma solidity ^0.8.0;\n\n/*\nAn error will undo all changes made to the state during a transaction.\n\nYou can throw an error by calling require, revert or assert.\n\n    require is used to validate inputs and conditions before execution.\n    revert is similar to require. See the code below for details.\n    assert is used to check for code that should never be false. Failing assertion probably means that there is a bug.\n\nUse custom error to save gas.\n*/\n\ncontract Error {\n    function testRequire(uint256 i) public pure {\n        /*  \n        Require should be used to validate conditions such as:\n         - inputs\n         - conditions before execution\n         - return values from calls to other functions\n        */\n        require(i > 10, \"input must be greater that 10\");\n    }\n\n    function testRevert(uint256 _i) public pure {\n        /*\n        Revert is useful when condition to check is complex.\n        */\n        if (_i <= 10) {\n            revert(\"input must be greater than 10\");\n        }\n    }\n\n    uint256 public num;\n\n    function testAssert() public view {\n        /*\n        Assert should only be used to test for internal errors, and to check for invariants.\n        */\n        assert(num == 0);\n    }\n\n    // custom error\n    // error InsufficientBalance(uint256 balance, uint256 withdrawAmount);\n    error InsufficientBalance(uint256 balance, uint256 withdrawAmount);\n\n    function testForCustomError(uint256 _withdrawAmount) public view {\n        uint256 bal = address(this).balance;\n        if (bal < _withdrawAmount) {\n            revert InsufficientBalance({\n                balance: bal,\n                withdrawAmount: _withdrawAmount\n            });\n            // revert InsufficientBalance(bal, _withdrawAmount);\n        }\n    }\n}\n\ncontract Account {\n    uint256 public balance;\n\n    function deposit(uint256 _amount) public {\n        uint256 oldBalance = balance;\n        uint256 newBanalce = balance + _amount;\n\n        // balance + amount does not overflow if balance + _amount >= balance\n        require(newBanalce >= oldBalance, \"Overflow\");\n\n        balance = newBanalce;\n\n        assert(balance >= oldBalance);\n    }\n\n    function withdraw(uint256 _amount) public {\n        uint256 oldBalance = balance;\n\n        // balance - _amount does not underflow if balance >= amount\n        require(_amount <= balance, \"Underflow\");\n\n        if (balance <= _amount) {\n            revert(\"Underflow\");\n        }\n\n        balance -= _amount;\n\n        assert(balance <= oldBalance);\n    }\n}\n",
  "sourcePath": "/Users/reyansh/Code/Smart/dAppLearned/SolidityByExample/contracts/016_ErrorHandling.sol",
  "compiler": {
    "name": "solc",
    "version": "0.8.21+commit.d9974bed.Emscripten.clang"
  },
  "schemaVersion": "3.4.16",
  "updatedAt": "2024-05-24T10:33:21.223Z",
  "devdoc": {
    "kind": "dev",
    "methods": {},
    "version": 1
  },
  "userdoc": {
    "kind": "user",
    "methods": {},
    "version": 1
  }
}