{
  "contractName": "EtherUnits",
  "abi": [
    {
      "inputs": [],
      "name": "isOneEther",
      "outputs": [
        {
          "internalType": "bool",
          "name": "",
          "type": "bool"
        }
      ],
      "stateMutability": "view",
      "type": "function"
    },
    {
      "inputs": [],
      "name": "isOneGwei",
      "outputs": [
        {
          "internalType": "bool",
          "name": "",
          "type": "bool"
        }
      ],
      "stateMutability": "view",
      "type": "function"
    },
    {
      "inputs": [],
      "name": "isOneWei",
      "outputs": [
        {
          "internalType": "bool",
          "name": "",
          "type": "bool"
        }
      ],
      "stateMutability": "view",
      "type": "function"
    },
    {
      "inputs": [],
      "name": "oneEther",
      "outputs": [
        {
          "internalType": "uint256",
          "name": "",
          "type": "uint256"
        }
      ],
      "stateMutability": "view",
      "type": "function"
    },
    {
      "inputs": [],
      "name": "oneGwei",
      "outputs": [
        {
          "internalType": "uint256",
          "name": "",
          "type": "uint256"
        }
      ],
      "stateMutability": "view",
      "type": "function"
    },
    {
      "inputs": [],
      "name": "oneWei",
      "outputs": [
        {
          "internalType": "uint256",
          "name": "",
          "type": "uint256"
        }
      ],
      "stateMutability": "view",
      "type": "function"
    }
  ],
  "bytecode": "0x608060405260015f5560015f541460015f6101000a81548160ff021916908315150217905550633b9aca00600255633b9aca006002541460035f6101000a81548160ff021916908315150217905550670de0b6b3a7640000600455670de0b6b3a76400006004541460055f6101000a81548160ff02191690831515021790555034801561008a575f80fd5b506101f9806100985f395ff3fe608060405234801561000f575f80fd5b5060043610610060575f3560e01c806328dc556f14610064578063481499c7146100825780634fb2e0be146100a05780638e50b65c146100be578063cf0f5d29146100dc578063d297a89f146100fa575b5f80fd5b61006c610118565b6040516100799190610179565b60405180910390f35b61008a61012a565b6040516100979190610179565b60405180910390f35b6100a861013c565b6040516100b591906101aa565b60405180910390f35b6100c6610141565b6040516100d391906101aa565b60405180910390f35b6100e4610147565b6040516100f19190610179565b60405180910390f35b610102610159565b60405161010f91906101aa565b60405180910390f35b60015f9054906101000a900460ff1681565b60035f9054906101000a900460ff1681565b5f5481565b60025481565b60055f9054906101000a900460ff1681565b60045481565b5f8115159050919050565b6101738161015f565b82525050565b5f60208201905061018c5f83018461016a565b92915050565b5f819050919050565b6101a481610192565b82525050565b5f6020820190506101bd5f83018461019b565b9291505056fea264697066735822122079ed79abf32824416aa44b0a6237a32e3d91f4d5e8ccc250db5de2d402680ec464736f6c63430008150033",
  "immutableReferences": {},
  "source": "// SPDX-License-Identifier: MIT\npragma solidity ^0.8.0;\n\ncontract EtherUnits {\n    uint256 public oneWei = 1 wei;\n    // 1 wei equals to 1\n    bool public isOneWei = (oneWei == 1);\n\n    uint256 public oneGwei = 1 gwei;\n    // 1 gwei is equal to 10^9 wei\n    bool public isOneGwei = (oneGwei == 1e9);\n\n    uint256 public oneEther = 1 ether;\n    // 1 ether is equal to 10^18 wei\n    bool public isOneEther = (oneEther == 1e18);\n}",
  "sourcePath": "/Users/reyansh/Code/Smart/dAppLearned/SolidityByExample/contracts/003_EtherUnits.sol",
  "compiler": {
    "name": "solc",
    "version": "0.8.21+commit.d9974bed.Emscripten.clang"
  },
  "schemaVersion": "3.4.16",
  "updatedAt": "2024-05-21T09:17:54.059Z",
  "devdoc": {
    "kind": "dev",
    "methods": {},
    "version": 1
  },
  "userdoc": {
    "kind": "user",
    "methods": {},
    "version": 1
  }
}