{
  "contractName": "Function",
  "abi": [
    {
      "inputs": [
        {
          "internalType": "uint256",
          "name": "",
          "type": "uint256"
        }
      ],
      "name": "arr",
      "outputs": [
        {
          "internalType": "uint256",
          "name": "",
          "type": "uint256"
        }
      ],
      "stateMutability": "view",
      "type": "function"
    },
    {
      "inputs": [],
      "name": "returnMany",
      "outputs": [
        {
          "internalType": "uint256",
          "name": "",
          "type": "uint256"
        },
        {
          "internalType": "bool",
          "name": "",
          "type": "bool"
        },
        {
          "internalType": "uint256",
          "name": "",
          "type": "uint256"
        }
      ],
      "stateMutability": "pure",
      "type": "function"
    },
    {
      "inputs": [],
      "name": "returneNamed",
      "outputs": [
        {
          "internalType": "uint256",
          "name": "x",
          "type": "uint256"
        },
        {
          "internalType": "bool",
          "name": "y",
          "type": "bool"
        },
        {
          "internalType": "uint256",
          "name": "z",
          "type": "uint256"
        }
      ],
      "stateMutability": "pure",
      "type": "function"
    },
    {
      "inputs": [],
      "name": "returnAssigned",
      "outputs": [
        {
          "internalType": "uint256",
          "name": "x",
          "type": "uint256"
        },
        {
          "internalType": "bool",
          "name": "y",
          "type": "bool"
        },
        {
          "internalType": "uint256",
          "name": "z",
          "type": "uint256"
        }
      ],
      "stateMutability": "pure",
      "type": "function"
    },
    {
      "inputs": [],
      "name": "destructuringAssignment",
      "outputs": [
        {
          "internalType": "uint256",
          "name": "",
          "type": "uint256"
        },
        {
          "internalType": "bool",
          "name": "",
          "type": "bool"
        },
        {
          "internalType": "uint256",
          "name": "",
          "type": "uint256"
        },
        {
          "internalType": "uint256",
          "name": "",
          "type": "uint256"
        },
        {
          "internalType": "uint256",
          "name": "",
          "type": "uint256"
        }
      ],
      "stateMutability": "pure",
      "type": "function"
    },
    {
      "inputs": [
        {
          "internalType": "uint256[]",
          "name": "_arr",
          "type": "uint256[]"
        }
      ],
      "name": "arrayInput",
      "outputs": [],
      "stateMutability": "nonpayable",
      "type": "function"
    },
    {
      "inputs": [],
      "name": "arrayOutput",
      "outputs": [
        {
          "internalType": "uint256[]",
          "name": "",
          "type": "uint256[]"
        }
      ],
      "stateMutability": "view",
      "type": "function"
    }
  ],
  "bytecode": "0x608060405234801561000f575f80fd5b5061063a8061001d5f395ff3fe608060405234801561000f575f80fd5b506004361061007b575f3560e01c8063868875441161005957806386887544146100ef5780638aa64a391461010f578063f4bb6e6b1461012f578063fd4a6a3a1461014b5761007b565b80631990532b1461007f578063343a6f931461009d57806371e5ee5f146100bf575b5f80fd5b61008761016b565b604051610094919061031f565b60405180910390f35b6100a56101c5565b6040516100b6959493929190610368565b60405180910390f35b6100d960048036038101906100d491906103f4565b610203565b6040516100e6919061041f565b60405180910390f35b6100f7610222565b60405161010693929190610438565b60405180910390f35b610117610235565b60405161012693929190610438565b60405180910390f35b610149600480360381019061014491906105bd565b610249565b005b61015361024c565b60405161016293929190610438565b60405180910390f35b60605f808054806020026020016040519081016040528092919081815260200182805480156101b757602002820191905f5260205f20905b8154815260200190600101908083116101a3575b505050505090508091505090565b5f805f805f805f806101d5610222565b9250925092505f80600460056006925050915084848484849950995099509950995050505050509091929394565b5f8181548110610211575f80fd5b905f5260205f20015f915090505481565b5f805f6001806003925092509250909192565b5f805f6017925060019150602d9050909192565b50565b5f805f60045f6006925092509250909192565b5f81519050919050565b5f82825260208201905092915050565b5f819050602082019050919050565b5f819050919050565b61029a81610288565b82525050565b5f6102ab8383610291565b60208301905092915050565b5f602082019050919050565b5f6102cd8261025f565b6102d78185610269565b93506102e283610279565b805f5b838110156103125781516102f988826102a0565b9750610304836102b7565b9250506001810190506102e5565b5085935050505092915050565b5f6020820190508181035f83015261033781846102c3565b905092915050565b61034881610288565b82525050565b5f8115159050919050565b6103628161034e565b82525050565b5f60a08201905061037b5f83018861033f565b6103886020830187610359565b610395604083018661033f565b6103a2606083018561033f565b6103af608083018461033f565b9695505050505050565b5f604051905090565b5f80fd5b5f80fd5b6103d381610288565b81146103dd575f80fd5b50565b5f813590506103ee816103ca565b92915050565b5f60208284031215610409576104086103c2565b5b5f610416848285016103e0565b91505092915050565b5f6020820190506104325f83018461033f565b92915050565b5f60608201905061044b5f83018661033f565b6104586020830185610359565b610465604083018461033f565b949350505050565b5f80fd5b5f601f19601f8301169050919050565b7f4e487b71000000000000000000000000000000000000000000000000000000005f52604160045260245ffd5b6104b782610471565b810181811067ffffffffffffffff821117156104d6576104d5610481565b5b80604052505050565b5f6104e86103b9565b90506104f482826104ae565b919050565b5f67ffffffffffffffff82111561051357610512610481565b5b602082029050602081019050919050565b5f80fd5b5f61053a610535846104f9565b6104df565b9050808382526020820190506020840283018581111561055d5761055c610524565b5b835b81811015610586578061057288826103e0565b84526020840193505060208101905061055f565b5050509392505050565b5f82601f8301126105a4576105a361046d565b5b81356105b4848260208601610528565b91505092915050565b5f602082840312156105d2576105d16103c2565b5b5f82013567ffffffffffffffff8111156105ef576105ee6103c6565b5b6105fb84828501610590565b9150509291505056fea2646970667358221220b13df6beb976f9344fd0ebb38b199fefe94976b29d8022213b480b8333d4de6f64736f6c63430008150033",
  "immutableReferences": {},
  "source": "// SPDX-License-Identifier: MIT\npragma solidity ^0.8.0;\n\ncontract Function {\n    // Function can return multiple values\n    function returnMany() public pure returns (uint256, bool, uint256) {\n        return (1, true, 3);\n    }\n\n    // Return values can be named\n    function returneNamed() public pure returns (uint256 x, bool y, uint256 z) {\n        return (4, false, 6);\n    }\n\n    // Return values can be assigned to their name.\n    // In this case the return statement can be omitted.\n    function returnAssigned() public pure returns (uint256 x, bool y, uint256 z) {\n        x = 23;\n        y = true;\n        z = 45;\n    }\n\n    // Use destructuring assignment when calling another function that returns multiple values.\n    function destructuringAssignment() public pure returns (uint256, bool, uint256, uint256, uint256) {\n        (uint256 i, bool j, uint256 k) = returnMany();\n\n        // Values can be left out.\n        (uint256 x, , uint256 z) = (4, 5, 6);\n\n        return (i, j, k, x, z);\n    }\n\n    // Can't use map for either input or output\n\n    // Can use array for input\n    function arrayInput(uint256[] memory _arr) public {}\n\n    // Can use array for output\n    uint256[] public arr;\n    function arrayOutput() public view returns (uint256[] memory) {\n        uint256[] memory arr2 = arr;\n        return arr2;\n    }\n}\n\n// Call function with key-value input\ncontract Function2 {\n    function functionWithManyInputs(\n        uint256 x,\n        uint256 y,\n        uint256 z,\n        address a,\n        bool b,\n        string memory c\n    ) public pure returns (uint256) {}\n\n    function callFunc() external pure returns (uint256) {\n        return functionWithManyInputs(1, 2, 3, address(0), true, \"c\");\n    }\n\n    function functionWithKeyValue() external pure returns (uint256) {\n        return functionWithManyInputs({\n            a: address(0),\n            b: true,\n            c: \"string\",\n            x: 31,\n            y: 23,\n            z: 42\n        });\n    }\n}\n",
  "sourcePath": "/Users/reyansh/Code/Smart/dAppLearned/SolidityByExample/contracts/014_Function.sol",
  "compiler": {
    "name": "solc",
    "version": "0.8.21+commit.d9974bed.Emscripten.clang"
  },
  "schemaVersion": "3.4.16",
  "updatedAt": "2024-05-24T04:11:40.388Z",
  "devdoc": {
    "kind": "dev",
    "methods": {},
    "version": 1
  },
  "userdoc": {
    "kind": "user",
    "methods": {},
    "version": 1
  }
}