{
  "contractName": "FunctionModifier",
  "abi": [
    {
      "inputs": [],
      "stateMutability": "nonpayable",
      "type": "constructor"
    },
    {
      "inputs": [],
      "name": "owner",
      "outputs": [
        {
          "internalType": "address",
          "name": "",
          "type": "address"
        }
      ],
      "stateMutability": "view",
      "type": "function"
    },
    {
      "inputs": [],
      "name": "x",
      "outputs": [
        {
          "internalType": "uint256",
          "name": "",
          "type": "uint256"
        }
      ],
      "stateMutability": "view",
      "type": "function"
    },
    {
      "inputs": [
        {
          "internalType": "address",
          "name": "_newOwner",
          "type": "address"
        }
      ],
      "name": "changeOwner",
      "outputs": [],
      "stateMutability": "nonpayable",
      "type": "function"
    },
    {
      "inputs": [
        {
          "internalType": "uint256",
          "name": "i",
          "type": "uint256"
        }
      ],
      "name": "decrement",
      "outputs": [],
      "stateMutability": "nonpayable",
      "type": "function"
    }
  ],
  "bytecode": "0x608060405234801561000f575f80fd5b50335f806101000a81548173ffffffffffffffffffffffffffffffffffffffff021916908373ffffffffffffffffffffffffffffffffffffffff1602179055506105fb8061005c5f395ff3fe608060405234801561000f575f80fd5b506004361061004a575f3560e01c80630c55699c1461004e5780633a9ebefd1461006c5780638da5cb5b14610088578063a6f9dae1146100a6575b5f80fd5b6100566100c2565b60405161006391906102fe565b60405180910390f35b61008660048036038101906100819190610345565b6100c8565b005b610090610184565b60405161009d91906103af565b60405180910390f35b6100c060048036038101906100bb91906103f2565b6101a7565b005b60015481565b60025f9054906101000a900460ff1615610117576040517f08c379a000000000000000000000000000000000000000000000000000000000815260040161010e90610477565b60405180910390fd5b600160025f6101000a81548160ff0219169083151502179055508060015f82825461014291906104c2565b9250508190555060018111156101685761016760018261016291906104c2565b6100c8565b5b5f60025f6101000a81548160ff02191690831515021790555050565b5f8054906101000a900473ffffffffffffffffffffffffffffffffffffffff1681565b5f8054906101000a900473ffffffffffffffffffffffffffffffffffffffff1673ffffffffffffffffffffffffffffffffffffffff163373ffffffffffffffffffffffffffffffffffffffff1614610234576040517f08c379a000000000000000000000000000000000000000000000000000000000815260040161022b9061053f565b60405180910390fd5b805f73ffffffffffffffffffffffffffffffffffffffff168173ffffffffffffffffffffffffffffffffffffffff16036102a3576040517f08c379a000000000000000000000000000000000000000000000000000000000815260040161029a906105a7565b60405180910390fd5b815f806101000a81548173ffffffffffffffffffffffffffffffffffffffff021916908373ffffffffffffffffffffffffffffffffffffffff1602179055505050565b5f819050919050565b6102f8816102e6565b82525050565b5f6020820190506103115f8301846102ef565b92915050565b5f80fd5b610324816102e6565b811461032e575f80fd5b50565b5f8135905061033f8161031b565b92915050565b5f6020828403121561035a57610359610317565b5b5f61036784828501610331565b91505092915050565b5f73ffffffffffffffffffffffffffffffffffffffff82169050919050565b5f61039982610370565b9050919050565b6103a98161038f565b82525050565b5f6020820190506103c25f8301846103a0565b92915050565b6103d18161038f565b81146103db575f80fd5b50565b5f813590506103ec816103c8565b92915050565b5f6020828403121561040757610406610317565b5b5f610414848285016103de565b91505092915050565b5f82825260208201905092915050565b7f4e6f207265656e7472616e6379000000000000000000000000000000000000005f82015250565b5f610461600d8361041d565b915061046c8261042d565b602082019050919050565b5f6020820190508181035f83015261048e81610455565b9050919050565b7f4e487b71000000000000000000000000000000000000000000000000000000005f52601160045260245ffd5b5f6104cc826102e6565b91506104d7836102e6565b92508282039050818111156104ef576104ee610495565b5b92915050565b7f4e6f74206f776e657200000000000000000000000000000000000000000000005f82015250565b5f61052960098361041d565b9150610534826104f5565b602082019050919050565b5f6020820190508181035f8301526105568161051d565b9050919050565b7f4e6f742076616c696420616464726573730000000000000000000000000000005f82015250565b5f61059160118361041d565b915061059c8261055d565b602082019050919050565b5f6020820190508181035f8301526105be81610585565b905091905056fea264697066735822122082df1678cc08f50b0f5487dae208a893da59c83b271f6ac07e1da843b943530064736f6c63430008150033",
  "immutableReferences": {},
  "source": "// SPDX-License-Identifier: MIT\npragma solidity ^0.8.0;\n\ncontract FunctionModifier {\n    // We will use these state variables to demonstrate how to use modifiers\n    address public owner;\n    uint256 public x;\n    bool private locked;\n\n    constructor() {\n        owner = msg.sender;\n    }\n\n    // Modifier to check that the caller is the owner of the contract.\n    modifier onlyOwner() {\n        require(msg.sender == owner, \"Not owner\");\n        _;\n        // Underscore is a special character only used inside\n        // a function modifier and it tells Solidity to\n        // execute the rest of the code.\n    }\n\n    // Modifiers can take inputs. This modifier checks that the address passed in is not the zero address.\n    modifier validAddress(address _addr) {\n        require(_addr != address(0), \"Not valid address\");\n        _;\n    }\n\n    function changeOwner(\n        address _newOwner\n    ) public onlyOwner validAddress(_newOwner) {\n        owner = _newOwner;\n    }\n\n    // Modifiers can be called before and / or after a function.\n    // This modifier prevents a function from being called while it is still executing.\n    modifier noReentrancy() {\n        require(!locked, \"No reentrancy\");\n        // require(locked == false, \"No reentrancy\");\n        locked = true;\n        _;\n        locked = false;\n    }\n\n    function decrement(uint256 i) public noReentrancy {\n        x -= i;\n\n        if (i > 1) {\n            decrement(i - 1);\n        }\n    }\n}\n",
  "sourcePath": "/Users/reyansh/Code/Smart/dAppLearned/SolidityByExample/contracts/017_Modifier.sol",
  "compiler": {
    "name": "solc",
    "version": "0.8.21+commit.d9974bed.Emscripten.clang"
  },
  "schemaVersion": "3.4.16",
  "updatedAt": "2024-05-24T10:17:46.256Z",
  "devdoc": {
    "kind": "dev",
    "methods": {},
    "version": 1
  },
  "userdoc": {
    "kind": "user",
    "methods": {},
    "version": 1
  }
}