{
  "contractName": "Function2",
  "abi": [
    {
      "inputs": [
        {
          "internalType": "uint256",
          "name": "x",
          "type": "uint256"
        },
        {
          "internalType": "uint256",
          "name": "y",
          "type": "uint256"
        },
        {
          "internalType": "uint256",
          "name": "z",
          "type": "uint256"
        },
        {
          "internalType": "address",
          "name": "a",
          "type": "address"
        },
        {
          "internalType": "bool",
          "name": "b",
          "type": "bool"
        },
        {
          "internalType": "string",
          "name": "c",
          "type": "string"
        }
      ],
      "name": "functionWithManyInputs",
      "outputs": [
        {
          "internalType": "uint256",
          "name": "",
          "type": "uint256"
        }
      ],
      "stateMutability": "pure",
      "type": "function"
    },
    {
      "inputs": [],
      "name": "callFunc",
      "outputs": [
        {
          "internalType": "uint256",
          "name": "",
          "type": "uint256"
        }
      ],
      "stateMutability": "pure",
      "type": "function"
    },
    {
      "inputs": [],
      "name": "functionWithKeyValue",
      "outputs": [
        {
          "internalType": "uint256",
          "name": "",
          "type": "uint256"
        }
      ],
      "stateMutability": "pure",
      "type": "function"
    }
  ],
  "bytecode": "0x608060405234801561000f575f80fd5b506104668061001d5f395ff3fe608060405234801561000f575f80fd5b506004361061003f575f3560e01c80634aac7823146100435780635a9cf41d146100735780639a7846b914610091575b5f80fd5b61005d60048036038101906100589190610363565b6100af565b60405161006a9190610417565b60405180910390f35b61007b6100ba565b6040516100889190610417565b60405180910390f35b610099610107565b6040516100a69190610417565b60405180910390f35b5f9695505050505050565b5f610102601f6017602a5f60016040518060400160405280600681526020017f737472696e6700000000000000000000000000000000000000000000000000008152506100af565b905090565b5f61014f6001600260035f60016040518060400160405280600181526020017f63000000000000000000000000000000000000000000000000000000000000008152506100af565b905090565b5f604051905090565b5f80fd5b5f80fd5b5f819050919050565b61017781610165565b8114610181575f80fd5b50565b5f813590506101928161016e565b92915050565b5f73ffffffffffffffffffffffffffffffffffffffff82169050919050565b5f6101c182610198565b9050919050565b6101d1816101b7565b81146101db575f80fd5b50565b5f813590506101ec816101c8565b92915050565b5f8115159050919050565b610206816101f2565b8114610210575f80fd5b50565b5f81359050610221816101fd565b92915050565b5f80fd5b5f80fd5b5f601f19601f8301169050919050565b7f4e487b71000000000000000000000000000000000000000000000000000000005f52604160045260245ffd5b6102758261022f565b810181811067ffffffffffffffff821117156102945761029361023f565b5b80604052505050565b5f6102a6610154565b90506102b2828261026c565b919050565b5f67ffffffffffffffff8211156102d1576102d061023f565b5b6102da8261022f565b9050602081019050919050565b828183375f83830152505050565b5f610307610302846102b7565b61029d565b9050828152602081018484840111156103235761032261022b565b5b61032e8482856102e7565b509392505050565b5f82601f83011261034a57610349610227565b5b813561035a8482602086016102f5565b91505092915050565b5f805f805f8060c0878903121561037d5761037c61015d565b5b5f61038a89828a01610184565b965050602061039b89828a01610184565b95505060406103ac89828a01610184565b94505060606103bd89828a016101de565b93505060806103ce89828a01610213565b92505060a087013567ffffffffffffffff8111156103ef576103ee610161565b5b6103fb89828a01610336565b9150509295509295509295565b61041181610165565b82525050565b5f60208201905061042a5f830184610408565b9291505056fea2646970667358221220dbfe57977df976308f9dd6f21f4add69f66730597c75b32c9aa4923f30f1121e64736f6c63430008150033",
  "immutableReferences": {},
  "source": "// SPDX-License-Identifier: MIT\npragma solidity ^0.8.0;\n\ncontract Function {\n    // Function can return multiple values\n    function returnMany() public pure returns (uint256, bool, uint256) {\n        return (1, true, 3);\n    }\n\n    // Return values can be named\n    function returneNamed() public pure returns (uint256 x, bool y, uint256 z) {\n        return (4, false, 6);\n    }\n\n    // Return values can be assigned to their name.\n    // In this case the return statement can be omitted.\n    function returnAssigned() public pure returns (uint256 x, bool y, uint256 z) {\n        x = 23;\n        y = true;\n        z = 45;\n    }\n\n    // Use destructuring assignment when calling another function that returns multiple values.\n    function destructuringAssignment() public pure returns (uint256, bool, uint256, uint256, uint256) {\n        (uint256 i, bool j, uint256 k) = returnMany();\n\n        // Values can be left out.\n        (uint256 x, , uint256 z) = (4, 5, 6);\n\n        return (i, j, k, x, z);\n    }\n\n    // Can't use map for either input or output\n\n    // Can use array for input\n    function arrayInput(uint256[] memory _arr) public {}\n\n    // Can use array for output\n    uint256[] public arr;\n    function arrayOutput() public view returns (uint256[] memory) {\n        uint256[] memory arr2 = arr;\n        return arr2;\n    }\n}\n\n// Call function with key-value input\ncontract Function2 {\n    function functionWithManyInputs(\n        uint256 x,\n        uint256 y,\n        uint256 z,\n        address a,\n        bool b,\n        string memory c\n    ) public pure returns (uint256) {}\n\n    function callFunc() external pure returns (uint256) {\n        return functionWithManyInputs(1, 2, 3, address(0), true, \"c\");\n    }\n\n    function functionWithKeyValue() external pure returns (uint256) {\n        return functionWithManyInputs({\n            a: address(0),\n            b: true,\n            c: \"string\",\n            x: 31,\n            y: 23,\n            z: 42\n        });\n    }\n}\n",
  "sourcePath": "/Users/reyansh/Code/Smart/dAppLearned/SolidityByExample/contracts/014_Function.sol",
  "compiler": {
    "name": "solc",
    "version": "0.8.21+commit.d9974bed.Emscripten.clang"
  },
  "schemaVersion": "3.4.16",
  "updatedAt": "2024-05-24T04:11:40.394Z",
  "devdoc": {
    "kind": "dev",
    "methods": {},
    "version": 1
  },
  "userdoc": {
    "kind": "user",
    "methods": {},
    "version": 1
  }
}