{
  "contractName": "NestedMapping",
  "abi": [
    {
      "inputs": [
        {
          "internalType": "address",
          "name": "_addr",
          "type": "address"
        },
        {
          "internalType": "uint256",
          "name": "_i",
          "type": "uint256"
        }
      ],
      "name": "get",
      "outputs": [
        {
          "internalType": "bool",
          "name": "",
          "type": "bool"
        }
      ],
      "stateMutability": "view",
      "type": "function"
    },
    {
      "inputs": [
        {
          "internalType": "address",
          "name": "_addr",
          "type": "address"
        },
        {
          "internalType": "uint256",
          "name": "_i",
          "type": "uint256"
        },
        {
          "internalType": "bool",
          "name": "_b",
          "type": "bool"
        }
      ],
      "name": "set",
      "outputs": [],
      "stateMutability": "nonpayable",
      "type": "function"
    },
    {
      "inputs": [
        {
          "internalType": "address",
          "name": "_addr",
          "type": "address"
        },
        {
          "internalType": "uint256",
          "name": "_i",
          "type": "uint256"
        }
      ],
      "name": "remove",
      "outputs": [],
      "stateMutability": "nonpayable",
      "type": "function"
    }
  ],
  "bytecode": "0x608060405234801561000f575f80fd5b506103838061001d5f395ff3fe608060405234801561000f575f80fd5b506004361061003f575f3560e01c80630b13919414610043578063abe7f1ab1461005f578063b464631b1461007b575b5f80fd5b61005d60048036038101906100589190610297565b6100ab565b005b610079600480360381019061007491906102e7565b610112565b005b610095600480360381019061009091906102e7565b610170565b6040516100a29190610334565b60405180910390f35b805f808573ffffffffffffffffffffffffffffffffffffffff1673ffffffffffffffffffffffffffffffffffffffff1681526020019081526020015f205f8481526020019081526020015f205f6101000a81548160ff021916908315150217905550505050565b5f808373ffffffffffffffffffffffffffffffffffffffff1673ffffffffffffffffffffffffffffffffffffffff1681526020019081526020015f205f8281526020019081526020015f205f6101000a81549060ff02191690555050565b5f805f8473ffffffffffffffffffffffffffffffffffffffff1673ffffffffffffffffffffffffffffffffffffffff1681526020019081526020015f205f8381526020019081526020015f205f9054906101000a900460ff16905092915050565b5f80fd5b5f73ffffffffffffffffffffffffffffffffffffffff82169050919050565b5f6101fe826101d5565b9050919050565b61020e816101f4565b8114610218575f80fd5b50565b5f8135905061022981610205565b92915050565b5f819050919050565b6102418161022f565b811461024b575f80fd5b50565b5f8135905061025c81610238565b92915050565b5f8115159050919050565b61027681610262565b8114610280575f80fd5b50565b5f813590506102918161026d565b92915050565b5f805f606084860312156102ae576102ad6101d1565b5b5f6102bb8682870161021b565b93505060206102cc8682870161024e565b92505060406102dd86828701610283565b9150509250925092565b5f80604083850312156102fd576102fc6101d1565b5b5f61030a8582860161021b565b925050602061031b8582860161024e565b9150509250929050565b61032e81610262565b82525050565b5f6020820190506103475f830184610325565b9291505056fea2646970667358221220081c6e72cdeb5b2b51d5ee9989545c607fb28f216129d75608d6175a409ef76064736f6c63430008150033",
  "immutableReferences": {},
  "source": "// SPDX-License-Identifier: MIT\npragma solidity ^0.8.0;\n\ncontract NestedMapping {\n    // Mapping from address to another mapping\n    mapping(address => mapping(uint256 => bool)) nestedMap;\n\n    function get(address _addr, uint256 _i) public view returns (bool) {\n        return nestedMap[_addr][_i];\n    }\n\n    function set(address _addr, uint256 _i, bool _b) public {\n        nestedMap[_addr][_i] = _b;\n    }\n\n    function remove(address _addr, uint256 _i) public {\n        delete nestedMap[_addr][_i];\n    }\n}\n",
  "sourcePath": "/Users/reyansh/Code/Smart/dAppLearned/SolidityByExample/contracts/007_NestedMapping.sol",
  "compiler": {
    "name": "solc",
    "version": "0.8.21+commit.d9974bed.Emscripten.clang"
  },
  "schemaVersion": "3.4.16",
  "updatedAt": "2024-05-21T16:24:39.402Z",
  "devdoc": {
    "kind": "dev",
    "methods": {},
    "version": 1
  },
  "userdoc": {
    "kind": "user",
    "methods": {},
    "version": 1
  }
}