{
  "contractName": "Payable",
  "abi": [
    {
      "inputs": [],
      "stateMutability": "payable",
      "type": "constructor"
    },
    {
      "inputs": [],
      "name": "owner",
      "outputs": [
        {
          "internalType": "address payable",
          "name": "",
          "type": "address"
        }
      ],
      "stateMutability": "view",
      "type": "function"
    },
    {
      "inputs": [],
      "name": "deposit",
      "outputs": [],
      "stateMutability": "payable",
      "type": "function"
    },
    {
      "inputs": [],
      "name": "notPayable",
      "outputs": [],
      "stateMutability": "nonpayable",
      "type": "function"
    },
    {
      "inputs": [],
      "name": "withdraw",
      "outputs": [],
      "stateMutability": "nonpayable",
      "type": "function"
    },
    {
      "inputs": [
        {
          "internalType": "address payable",
          "name": "_to",
          "type": "address"
        },
        {
          "internalType": "uint256",
          "name": "_amount",
          "type": "uint256"
        }
      ],
      "name": "transfer",
      "outputs": [],
      "stateMutability": "nonpayable",
      "type": "function"
    }
  ],
  "bytecode": "0x6080604052335f806101000a81548173ffffffffffffffffffffffffffffffffffffffff021916908373ffffffffffffffffffffffffffffffffffffffff16021790555061045f806100505f395ff3fe608060405260043610610049575f3560e01c8063273884bd1461004d5780633ccfd60b146100635780638da5cb5b14610079578063a9059cbb146100a3578063d0e30db0146100cb575b5f80fd5b348015610058575f80fd5b506100616100d5565b005b34801561006e575f80fd5b506100776100d7565b005b348015610084575f80fd5b5061008d6101a7565b60405161009a91906102b8565b60405180910390f35b3480156100ae575f80fd5b506100c960048036038101906100c49190610332565b6101ca565b005b6100d3610277565b005b565b5f4790505f805f9054906101000a900473ffffffffffffffffffffffffffffffffffffffff1673ffffffffffffffffffffffffffffffffffffffff16826040516101209061039d565b5f6040518083038185875af1925050503d805f811461015a576040519150601f19603f3d011682016040523d82523d5f602084013e61015f565b606091505b50509050806101a3576040517f08c379a000000000000000000000000000000000000000000000000000000000815260040161019a9061040b565b60405180910390fd5b5050565b5f8054906101000a900473ffffffffffffffffffffffffffffffffffffffff1681565b5f8273ffffffffffffffffffffffffffffffffffffffff16826040516101ef9061039d565b5f6040518083038185875af1925050503d805f8114610229576040519150601f19603f3d011682016040523d82523d5f602084013e61022e565b606091505b5050905080610272576040517f08c379a00000000000000000000000000000000000000000000000000000000081526004016102699061040b565b60405180910390fd5b505050565b565b5f73ffffffffffffffffffffffffffffffffffffffff82169050919050565b5f6102a282610279565b9050919050565b6102b281610298565b82525050565b5f6020820190506102cb5f8301846102a9565b92915050565b5f80fd5b6102de81610298565b81146102e8575f80fd5b50565b5f813590506102f9816102d5565b92915050565b5f819050919050565b610311816102ff565b811461031b575f80fd5b50565b5f8135905061032c81610308565b92915050565b5f8060408385031215610348576103476102d1565b5b5f610355858286016102eb565b92505060206103668582860161031e565b9150509250929050565b5f81905092915050565b50565b5f6103885f83610370565b91506103938261037a565b5f82019050919050565b5f6103a78261037d565b9150819050919050565b5f82825260208201905092915050565b7f4661696c656420746f2073656e642045746865720000000000000000000000005f82015250565b5f6103f56014836103b1565b9150610400826103c1565b602082019050919050565b5f6020820190508181035f830152610422816103e9565b905091905056fea2646970667358221220aec99960c8ff5649be5e71fe07ddd72dcf21f23a9776ad38b6da67fdcef6fcd164736f6c63430008180033",
  "immutableReferences": {},
  "source": "// SPDX-License-Identifier: MIT\npragma solidity ^0.8.0;\n\ncontract Payable {\n    // Payable address can send Ether via transfer or send\n    address payable public owner;\n\n    // Payable constructor can receive Ether\n    constructor() payable {\n        owner = payable(msg.sender);\n    }\n\n    // Function to deposit Ether into this contract.\n    // Call this function along with some Ether.\n    // The balance of this contract will be automatically updated.\n    function deposit() public payable {}\n\n    // Call this function along with some Ether.\n    // The function will throw an error since this function is not payable.\n    function notPayable() public {}\n\n    // Function to withdraw all Ether from this contract\n    function withdraw() public {\n        // get the amount of Ether stored in this contract\n        uint256 amount = address(this).balance;\n\n        // send all Ether to owner\n        (bool success, ) = owner.call{value: amount}(\"\");\n        require(success, \"Failed to send Ether\");\n    }\n\n    // Function to transfer Ether from this contract to address from input\n    function transfer(address payable _to, uint256 _amount) public {\n        // Note that \"to\" is declared as payable\n        (bool success,) = _to.call{value: _amount}(\"\");\n        require(success, \"Failed to send Ether\");\n    }\n}\n",
  "sourcePath": "/Users/reyansh/Code/Smart/dAppLearned/SolidityByExample/contracts/023_Payable.sol",
  "compiler": {
    "name": "solc",
    "version": "0.8.24+commit.e11b9ed9.Emscripten.clang"
  },
  "schemaVersion": "3.4.16",
  "updatedAt": "2024-05-29T15:15:16.520Z",
  "devdoc": {
    "kind": "dev",
    "methods": {},
    "version": 1
  },
  "userdoc": {
    "kind": "user",
    "methods": {},
    "version": 1
  }
}