{
  "contractName": "ReceiveEther",
  "abi": [
    {
      "stateMutability": "payable",
      "type": "fallback"
    },
    {
      "stateMutability": "payable",
      "type": "receive"
    },
    {
      "inputs": [],
      "name": "getBalance",
      "outputs": [
        {
          "internalType": "uint256",
          "name": "",
          "type": "uint256"
        }
      ],
      "stateMutability": "view",
      "type": "function"
    }
  ],
  "bytecode": "0x608060405234801561000f575f80fd5b5060b58061001c5f395ff3fe608060405260043610601e575f3560e01c806312065fe0146026576024565b36602457005b005b3480156030575f80fd5b506037604b565b604051604291906068565b60405180910390f35b5f47905090565b5f819050919050565b6062816052565b82525050565b5f60208201905060795f830184605b565b9291505056fea264697066735822122037351d7fabb464403e6cae5ab22e1b3e080e47cf31b556cb7cb5bb2dfe2d237a64736f6c63430008180033",
  "immutableReferences": {},
  "source": "// SPDX-License-Identifier: MIT\npragma solidity ^0.8.0;\n\ncontract ReceiveEther {\n    // Function to receive Ether. msg.data must be empty\n    receive() external payable {}\n\n    // Fallback function is called when msg.data is not empty\n    fallback() external payable {}\n\n    function getBalance() public view returns (uint256) {\n        return address(this).balance;\n    }\n}\n\ncontract SendEther {\n    function sendViaTransfer(address payable _to) public payable {\n        // This function is no longer recomended for sending Ether.\n        _to.transfer(msg.value);\n    }\n\n    function sendViaSend(address payable _to) public payable {\n        // Send returns a boolean value indicating success or failure.\n        // This function is not recommended for sending Ether.\n        bool sent = _to.send(msg.value);\n        require(sent, \"Failed to sent Ether\");\n    }\n\n    function sendViaCall(address payable _to) public payable {\n        // Call returns a boolean value indicating success or failure.\n        // This is the current recommeded method use.\n        // (bool sent, bytes memory data) = _to.call{value: msg.value}(\"\");\n        (bool sent, ) = _to.call{value: msg.value}(\"\");\n        require(sent, \"Failed to sent Ether\");\n    }\n}\n",
  "sourcePath": "/Users/reyansh/Code/Smart/dAppLearned/SolidityByExample/contracts/024_ReceiveSendEther.sol",
  "compiler": {
    "name": "solc",
    "version": "0.8.24+commit.e11b9ed9.Emscripten.clang"
  },
  "schemaVersion": "3.4.16",
  "updatedAt": "2024-05-29T15:30:59.088Z",
  "devdoc": {
    "kind": "dev",
    "methods": {},
    "version": 1
  },
  "userdoc": {
    "kind": "user",
    "methods": {},
    "version": 1
  }
}