{
  "contractName": "SendToFallback",
  "abi": [
    {
      "inputs": [
        {
          "internalType": "address payable",
          "name": "_to",
          "type": "address"
        }
      ],
      "name": "transferToFallback",
      "outputs": [],
      "stateMutability": "payable",
      "type": "function"
    },
    {
      "inputs": [
        {
          "internalType": "address payable",
          "name": "_to",
          "type": "address"
        }
      ],
      "name": "callFallback",
      "outputs": [],
      "stateMutability": "payable",
      "type": "function"
    }
  ],
  "bytecode": "0x608060405234801561000f575f80fd5b506102cf8061001d5f395ff3fe608060405260043610610028575f3560e01c80636ba87a531461002c578063cfc6cdaa14610048575b5f80fd5b610046600480360381019061004191906101b5565b610064565b005b610062600480360381019061005d91906101b5565b610110565b005b5f8173ffffffffffffffffffffffffffffffffffffffff16346040516100899061020d565b5f6040518083038185875af1925050503d805f81146100c3576040519150601f19603f3d011682016040523d82523d5f602084013e6100c8565b606091505b505090508061010c576040517f08c379a00000000000000000000000000000000000000000000000000000000081526004016101039061027b565b60405180910390fd5b5050565b8073ffffffffffffffffffffffffffffffffffffffff166108fc3490811502906040515f60405180830381858888f19350505050158015610153573d5f803e3d5ffd5b5050565b5f80fd5b5f73ffffffffffffffffffffffffffffffffffffffff82169050919050565b5f6101848261015b565b9050919050565b6101948161017a565b811461019e575f80fd5b50565b5f813590506101af8161018b565b92915050565b5f602082840312156101ca576101c9610157565b5b5f6101d7848285016101a1565b91505092915050565b5f81905092915050565b50565b5f6101f85f836101e0565b9150610203826101ea565b5f82019050919050565b5f610217826101ed565b9150819050919050565b5f82825260208201905092915050565b7f4661696c656420746f2073656e642045746865720000000000000000000000005f82015250565b5f610265601483610221565b915061027082610231565b602082019050919050565b5f6020820190508181035f83015261029281610259565b905091905056fea26469706673582212203b4bb1ccc3f896ff69027067689c402cdf63561ef149f90cdfa32d45a7326e1164736f6c63430008180033",
  "immutableReferences": {},
  "source": "// SPDX-License-Identifier: MIT\npragma solidity ^0.8.0;\n\ncontract Fallback {\n    event Log(string func, uint256 gas);\n\n    // Fallback function must declared external\n    fallback() external payable {\n        // send / transfer (forwards 2300 gas to this fallback function)\n        // call (forwards all of the gas)\n        emit Log(\"fallback\", gasleft());\n    }\n\n    // Receive is a variabnt of fallback that is triggered when msg.data is empty\n    receive() external payable {\n        emit Log(\"receive\", gasleft());\n    }\n\n    // Helper function to check the balance of this contract\n    function getBalance() public view returns (uint256) {\n        return address(this).balance;\n    }\n}\n\ncontract SendToFallback {\n    function transferToFallback(address payable _to) public payable {\n        _to.transfer(msg.value);\n    }\n\n    function callFallback(address payable _to) public payable {\n        (bool sent,) = _to.call{value: msg.value}(\"\");\n        require(sent, \"Failed to send Ether\");\n    }\n}",
  "sourcePath": "/Users/reyansh/Code/Smart/dAppLearned/SolidityByExample/contracts/025_Fallback.sol",
  "compiler": {
    "name": "solc",
    "version": "0.8.24+commit.e11b9ed9.Emscripten.clang"
  },
  "schemaVersion": "3.4.16",
  "updatedAt": "2024-05-30T15:33:12.147Z",
  "devdoc": {
    "kind": "dev",
    "methods": {},
    "version": 1
  },
  "userdoc": {
    "kind": "user",
    "methods": {},
    "version": 1
  }
}