{
  "contractName": "SendEther",
  "abi": [
    {
      "inputs": [
        {
          "internalType": "address payable",
          "name": "_to",
          "type": "address"
        }
      ],
      "name": "sendViaTransfer",
      "outputs": [],
      "stateMutability": "payable",
      "type": "function"
    },
    {
      "inputs": [
        {
          "internalType": "address payable",
          "name": "_to",
          "type": "address"
        }
      ],
      "name": "sendViaSend",
      "outputs": [],
      "stateMutability": "payable",
      "type": "function"
    },
    {
      "inputs": [
        {
          "internalType": "address payable",
          "name": "_to",
          "type": "address"
        }
      ],
      "name": "sendViaCall",
      "outputs": [],
      "stateMutability": "payable",
      "type": "function"
    }
  ],
  "bytecode": "0x608060405234801561000f575f80fd5b506103718061001d5f395ff3fe608060405260043610610033575f3560e01c8063636e082b1461003757806374be480614610053578063830c29ae1461006f575b5f80fd5b610051600480360381019061004c9190610257565b61008b565b005b61006d60048036038101906100689190610257565b6100d2565b005b61008960048036038101906100849190610257565b61014d565b005b8073ffffffffffffffffffffffffffffffffffffffff166108fc3490811502906040515f60405180830381858888f193505050501580156100ce573d5f803e3d5ffd5b5050565b5f8173ffffffffffffffffffffffffffffffffffffffff166108fc3490811502906040515f60405180830381858888f19350505050905080610149576040517f08c379a0000000000000000000000000000000000000000000000000000000008152600401610140906102dc565b60405180910390fd5b5050565b5f8173ffffffffffffffffffffffffffffffffffffffff163460405161017290610327565b5f6040518083038185875af1925050503d805f81146101ac576040519150601f19603f3d011682016040523d82523d5f602084013e6101b1565b606091505b50509050806101f5576040517f08c379a00000000000000000000000000000000000000000000000000000000081526004016101ec906102dc565b60405180910390fd5b5050565b5f80fd5b5f73ffffffffffffffffffffffffffffffffffffffff82169050919050565b5f610226826101fd565b9050919050565b6102368161021c565b8114610240575f80fd5b50565b5f813590506102518161022d565b92915050565b5f6020828403121561026c5761026b6101f9565b5b5f61027984828501610243565b91505092915050565b5f82825260208201905092915050565b7f4661696c656420746f2073656e742045746865720000000000000000000000005f82015250565b5f6102c6601483610282565b91506102d182610292565b602082019050919050565b5f6020820190508181035f8301526102f3816102ba565b9050919050565b5f81905092915050565b50565b5f6103125f836102fa565b915061031d82610304565b5f82019050919050565b5f61033182610307565b915081905091905056fea26469706673582212204675c0d1bbd5731a728d7fc1a3305d07ee9ca4fc7951f3e3b3d7cdee11f34e2d64736f6c63430008180033",
  "immutableReferences": {},
  "source": "// SPDX-License-Identifier: MIT\npragma solidity ^0.8.0;\n\ncontract ReceiveEther {\n    // Function to receive Ether. msg.data must be empty\n    receive() external payable {}\n\n    // Fallback function is called when msg.data is not empty\n    fallback() external payable {}\n\n    function getBalance() public view returns (uint256) {\n        return address(this).balance;\n    }\n}\n\ncontract SendEther {\n    function sendViaTransfer(address payable _to) public payable {\n        // This function is no longer recomended for sending Ether.\n        _to.transfer(msg.value);\n    }\n\n    function sendViaSend(address payable _to) public payable {\n        // Send returns a boolean value indicating success or failure.\n        // This function is not recommended for sending Ether.\n        bool sent = _to.send(msg.value);\n        require(sent, \"Failed to sent Ether\");\n    }\n\n    function sendViaCall(address payable _to) public payable {\n        // Call returns a boolean value indicating success or failure.\n        // This is the current recommeded method use.\n        // (bool sent, bytes memory data) = _to.call{value: msg.value}(\"\");\n        (bool sent, ) = _to.call{value: msg.value}(\"\");\n        require(sent, \"Failed to sent Ether\");\n    }\n}\n",
  "sourcePath": "/Users/reyansh/Code/Smart/dAppLearned/SolidityByExample/contracts/024_ReceiveSendEther.sol",
  "compiler": {
    "name": "solc",
    "version": "0.8.24+commit.e11b9ed9.Emscripten.clang"
  },
  "schemaVersion": "3.4.16",
  "updatedAt": "2024-05-29T15:30:59.090Z",
  "devdoc": {
    "kind": "dev",
    "methods": {},
    "version": 1
  },
  "userdoc": {
    "kind": "user",
    "methods": {},
    "version": 1
  }
}