{
  "contractName": "Todos",
  "abi": [
    {
      "inputs": [
        {
          "internalType": "uint256",
          "name": "",
          "type": "uint256"
        }
      ],
      "name": "todos",
      "outputs": [
        {
          "internalType": "string",
          "name": "text",
          "type": "string"
        },
        {
          "internalType": "bool",
          "name": "completed",
          "type": "bool"
        }
      ],
      "stateMutability": "view",
      "type": "function"
    },
    {
      "inputs": [
        {
          "internalType": "string",
          "name": "_text",
          "type": "string"
        }
      ],
      "name": "create",
      "outputs": [],
      "stateMutability": "nonpayable",
      "type": "function"
    },
    {
      "inputs": [
        {
          "internalType": "uint256",
          "name": "_index",
          "type": "uint256"
        }
      ],
      "name": "get",
      "outputs": [
        {
          "internalType": "string",
          "name": "text",
          "type": "string"
        },
        {
          "internalType": "bool",
          "name": "completed",
          "type": "bool"
        }
      ],
      "stateMutability": "view",
      "type": "function"
    },
    {
      "inputs": [
        {
          "internalType": "uint256",
          "name": "_index",
          "type": "uint256"
        },
        {
          "internalType": "string",
          "name": "_text",
          "type": "string"
        }
      ],
      "name": "updateText",
      "outputs": [],
      "stateMutability": "nonpayable",
      "type": "function"
    },
    {
      "inputs": [
        {
          "internalType": "uint256",
          "name": "_index",
          "type": "uint256"
        }
      ],
      "name": "updateCompleted",
      "outputs": [],
      "stateMutability": "nonpayable",
      "type": "function"
    }
  ],
  "bytecode": "0x608060405234801561000f575f80fd5b50610c848061001d5f395ff3fe608060405234801561000f575f80fd5b5060043610610055575f3560e01c80639507d39a14610059578063b6a46b3b1461008a578063bc8bc2b4146100a6578063cd111614146100d7578063d81acad1146100f3575b5f80fd5b610073600480360381019061006e91906105e6565b61010f565b6040516100819291906106b5565b60405180910390f35b6100a4600480360381019061009f9190610744565b610222565b005b6100c060048036038101906100bb91906105e6565b610443565b6040516100ce9291906106b5565b60405180910390f35b6100f160048036038101906100ec919061078f565b610503565b005b61010d600480360381019061010891906105e6565b61053e565b005b60605f80805490508310610158576040517f08c379a000000000000000000000000000000000000000000000000000000000815260040161014f90610836565b60405180910390fd5b5f80848154811061016c5761016b610854565b5b905f5260205f2090600202019050805f01816001015f9054906101000a900460ff1681805461019a906108ae565b80601f01602080910402602001604051908101604052809291908181526020018280546101c6906108ae565b80156102115780601f106101e857610100808354040283529160200191610211565b820191905f5260205f20905b8154815290600101906020018083116101f457829003601f168201915b505050505091509250925050915091565b5f604051806040016040528084848080601f0160208091040260200160405190810160405280939291908181526020018383808284375f81840152601f19601f8201169050808301925050505050505081526020015f1515815250908060018154018082558091505060019003905f5260205f2090600202015f909190919091505f820151815f0190816102b69190610aa8565b506020820151816001015f6101000a81548160ff02191690831515021790555050505f604051806040016040528084848080601f0160208091040260200160405190810160405280939291908181526020018383808284375f81840152601f19601f8201169050808301925050505050505081526020015f1515815250908060018154018082558091505060019003905f5260205f2090600202015f909190919091505f820151815f01908161036c9190610aa8565b506020820151816001015f6101000a81548160ff0219169083151502179055505050610396610590565b82828080601f0160208091040260200160405190810160405280939291908181526020018383808284375f81840152601f19601f82011690508083019250505050505050815f01819052505f81908060018154018082558091505060019003905f5260205f2090600202015f909190919091505f820151815f01908161041c9190610aa8565b506020820151816001015f6101000a81548160ff0219169083151502179055505050505050565b5f8181548110610451575f80fd5b905f5260205f2090600202015f91509050805f018054610470906108ae565b80601f016020809104026020016040519081016040528092919081815260200182805461049c906108ae565b80156104e75780601f106104be576101008083540402835291602001916104e7565b820191905f5260205f20905b8154815290600101906020018083116104ca57829003601f168201915b505050505090806001015f9054906101000a900460ff16905082565b5f80848154811061051757610516610854565b5b905f5260205f20906002020190508282825f019182610537929190610b81565b5050505050565b5f80828154811061055257610551610854565b5b905f5260205f2090600202019050806001015f9054906101000a900460ff1615816001015f6101000a81548160ff0219169083151502179055505050565b6040518060400160405280606081526020015f151581525090565b5f80fd5b5f80fd5b5f819050919050565b6105c5816105b3565b81146105cf575f80fd5b50565b5f813590506105e0816105bc565b92915050565b5f602082840312156105fb576105fa6105ab565b5b5f610608848285016105d2565b91505092915050565b5f81519050919050565b5f82825260208201905092915050565b5f5b8381101561064857808201518184015260208101905061062d565b5f8484015250505050565b5f601f19601f8301169050919050565b5f61066d82610611565b610677818561061b565b935061068781856020860161062b565b61069081610653565b840191505092915050565b5f8115159050919050565b6106af8161069b565b82525050565b5f6040820190508181035f8301526106cd8185610663565b90506106dc60208301846106a6565b9392505050565b5f80fd5b5f80fd5b5f80fd5b5f8083601f840112610704576107036106e3565b5b8235905067ffffffffffffffff811115610721576107206106e7565b5b60208301915083600182028301111561073d5761073c6106eb565b5b9250929050565b5f806020838503121561075a576107596105ab565b5b5f83013567ffffffffffffffff811115610777576107766105af565b5b610783858286016106ef565b92509250509250929050565b5f805f604084860312156107a6576107a56105ab565b5b5f6107b3868287016105d2565b935050602084013567ffffffffffffffff8111156107d4576107d36105af565b5b6107e0868287016106ef565b92509250509250925092565b7f496e646578206f7574206f6620626f756e6473000000000000000000000000005f82015250565b5f61082060138361061b565b915061082b826107ec565b602082019050919050565b5f6020820190508181035f83015261084d81610814565b9050919050565b7f4e487b71000000000000000000000000000000000000000000000000000000005f52603260045260245ffd5b7f4e487b71000000000000000000000000000000000000000000000000000000005f52602260045260245ffd5b5f60028204905060018216806108c557607f821691505b6020821081036108d8576108d7610881565b5b50919050565b7f4e487b71000000000000000000000000000000000000000000000000000000005f52604160045260245ffd5b5f819050815f5260205f209050919050565b5f6020601f8301049050919050565b5f82821b905092915050565b5f600883026109677fffffffffffffffffffffffffffffffffffffffffffffffffffffffffffffffff8261092c565b610971868361092c565b95508019841693508086168417925050509392505050565b5f819050919050565b5f6109ac6109a76109a2846105b3565b610989565b6105b3565b9050919050565b5f819050919050565b6109c583610992565b6109d96109d1826109b3565b848454610938565b825550505050565b5f90565b6109ed6109e1565b6109f88184846109bc565b505050565b5b81811015610a1b57610a105f826109e5565b6001810190506109fe565b5050565b601f821115610a6057610a318161090b565b610a3a8461091d565b81016020851015610a49578190505b610a5d610a558561091d565b8301826109fd565b50505b505050565b5f82821c905092915050565b5f610a805f1984600802610a65565b1980831691505092915050565b5f610a988383610a71565b9150826002028217905092915050565b610ab182610611565b67ffffffffffffffff811115610aca57610ac96108de565b5b610ad482546108ae565b610adf828285610a1f565b5f60209050601f831160018114610b10575f8415610afe578287015190505b610b088582610a8d565b865550610b6f565b601f198416610b1e8661090b565b5f5b82811015610b4557848901518255600182019150602085019450602081019050610b20565b86831015610b625784890151610b5e601f891682610a71565b8355505b6001600288020188555050505b505050505050565b5f82905092915050565b610b8b8383610b77565b67ffffffffffffffff811115610ba457610ba36108de565b5b610bae82546108ae565b610bb9828285610a1f565b5f601f831160018114610be6575f8415610bd4578287013590505b610bde8582610a8d565b865550610c45565b601f198416610bf48661090b565b5f5b82811015610c1b57848901358255600182019150602085019450602081019050610bf6565b86831015610c385784890135610c34601f891682610a71565b8355505b6001600288020188555050505b5050505050505056fea26469706673582212203f82546eb104925e22a622ea11552d5f623682327ca979403d759d64e445de4864736f6c63430008150033",
  "immutableReferences": {},
  "source": "// SPDX-License-Identifier: MIT\npragma solidity ^0.8.0;\n\nimport \"./013_TodoStructDeclaration.sol\";\n\ncontract Todos {\n    // An array of 'Todo' structs\n    Todo[] public todos;\n\n    function create(string calldata _text) public {\n        // 3 ways to initialize a struct\n        // - calling it like a function\n        todos.push(Todo(_text, false));\n\n        // - Key value mapping\n        todos.push(Todo({text: _text, completed: false}));\n\n        // - initialze an empty struct and then update it\n        Todo memory todo;\n        todo.text = _text;\n        // todo.completed is intialized to 0 by default\n        todos.push(todo);\n    }\n\n    // Solidity automatically created a getter for 'todos'. You do not need to define getter function.\n    function get(\n        uint256 _index\n    ) public view returns (string memory text, bool completed) {\n        require(_index < todos.length, \"Index out of bounds\");\n        \n        Todo storage todo = todos[_index];\n        return (todo.text, todo.completed);\n    }\n\n    // update text\n    function updateText(uint256 _index, string calldata _text) public {\n        Todo storage todo = todos[_index];\n        todo.text = _text;\n    }\n\n    // update completed\n    function updateCompleted(uint256 _index) public {\n        Todo storage todo = todos[_index];\n        todo.completed = !todo.completed;\n    }\n}\n",
  "sourcePath": "/Users/reyansh/Code/Smart/dAppLearned/SolidityByExample/contracts/013_Todos.sol",
  "compiler": {
    "name": "solc",
    "version": "0.8.21+commit.d9974bed.Emscripten.clang"
  },
  "schemaVersion": "3.4.16",
  "updatedAt": "2024-05-22T16:53:18.042Z",
  "devdoc": {
    "kind": "dev",
    "methods": {},
    "version": 1
  },
  "userdoc": {
    "kind": "user",
    "methods": {},
    "version": 1
  }
}