{
  "contractName": "Variables",
  "abi": [
    {
      "inputs": [
        {
          "internalType": "uint256",
          "name": "_unit",
          "type": "uint256"
        }
      ],
      "stateMutability": "nonpayable",
      "type": "constructor"
    },
    {
      "inputs": [],
      "name": "ADDRESS",
      "outputs": [
        {
          "internalType": "address",
          "name": "",
          "type": "address"
        }
      ],
      "stateMutability": "view",
      "type": "function"
    },
    {
      "inputs": [],
      "name": "MY_ADDRESS",
      "outputs": [
        {
          "internalType": "address",
          "name": "",
          "type": "address"
        }
      ],
      "stateMutability": "view",
      "type": "function"
    },
    {
      "inputs": [],
      "name": "MY_UINT",
      "outputs": [
        {
          "internalType": "uint256",
          "name": "",
          "type": "uint256"
        }
      ],
      "stateMutability": "view",
      "type": "function"
    },
    {
      "inputs": [],
      "name": "UNIT",
      "outputs": [
        {
          "internalType": "uint256",
          "name": "",
          "type": "uint256"
        }
      ],
      "stateMutability": "view",
      "type": "function"
    },
    {
      "inputs": [],
      "name": "num",
      "outputs": [
        {
          "internalType": "uint256",
          "name": "",
          "type": "uint256"
        }
      ],
      "stateMutability": "view",
      "type": "function"
    },
    {
      "inputs": [],
      "name": "txt",
      "outputs": [
        {
          "internalType": "string",
          "name": "",
          "type": "string"
        }
      ],
      "stateMutability": "view",
      "type": "function"
    },
    {
      "inputs": [],
      "name": "someFunction",
      "outputs": [],
      "stateMutability": "view",
      "type": "function"
    }
  ],
  "bytecode": "0x60c06040526040518060400160405280600581526020017f536d6172740000000000000000000000000000000000000000000000000000008152505f908162000049919062000328565b5060206001553480156200005b575f80fd5b506040516200089d3803806200089d83398181016040528101906200008191906200043f565b3373ffffffffffffffffffffffffffffffffffffffff1660808173ffffffffffffffffffffffffffffffffffffffff16815250508060a08181525050506200046f565b5f81519050919050565b7f4e487b71000000000000000000000000000000000000000000000000000000005f52604160045260245ffd5b7f4e487b71000000000000000000000000000000000000000000000000000000005f52602260045260245ffd5b5f60028204905060018216806200014057607f821691505b602082108103620001565762000155620000fb565b5b50919050565b5f819050815f5260205f209050919050565b5f6020601f8301049050919050565b5f82821b905092915050565b5f60088302620001ba7fffffffffffffffffffffffffffffffffffffffffffffffffffffffffffffffff826200017d565b620001c686836200017d565b95508019841693508086168417925050509392505050565b5f819050919050565b5f819050919050565b5f620002106200020a6200020484620001de565b620001e7565b620001de565b9050919050565b5f819050919050565b6200022b83620001f0565b620002436200023a8262000217565b84845462000189565b825550505050565b5f90565b620002596200024b565b6200026681848462000220565b505050565b5b818110156200028d57620002815f826200024f565b6001810190506200026c565b5050565b601f821115620002dc57620002a6816200015c565b620002b1846200016e565b81016020851015620002c1578190505b620002d9620002d0856200016e565b8301826200026b565b50505b505050565b5f82821c905092915050565b5f620002fe5f1984600802620002e1565b1980831691505092915050565b5f620003188383620002ed565b9150826002028217905092915050565b6200033382620000c4565b67ffffffffffffffff8111156200034f576200034e620000ce565b5b6200035b825462000128565b6200036882828562000291565b5f60209050601f8311600181146200039e575f841562000389578287015190505b6200039585826200030b565b86555062000404565b601f198416620003ae866200015c565b5f5b82811015620003d757848901518255600182019150602085019450602081019050620003b0565b86831015620003f75784890151620003f3601f891682620002ed565b8355505b6001600288020188555050505b505050505050565b5f80fd5b6200041b81620001de565b811462000426575f80fd5b50565b5f81519050620004398162000410565b92915050565b5f602082840312156200045757620004566200040c565b5b5f620004668482850162000429565b91505092915050565b60805160a05161040c620004915f395f61020001525f610224015261040c5ff3fe608060405234801561000f575f80fd5b506004361061007b575f3560e01c80634e70b1dc116100595780634e70b1dc146100c55780637e3b1119146100e35780639d8e217714610101578063b51ce63d1461011f5761007b565b80631f6649e31461007f57806335b09a6e1461009d5780633a756cec146100a7575b5f80fd5b61008761013d565b604051610094919061025e565b60405180910390f35b6100a5610142565b005b6100af610155565b6040516100bc91906102b6565b60405180910390f35b6100cd61016d565b6040516100da919061025e565b60405180910390f35b6100eb610173565b6040516100f89190610359565b60405180910390f35b6101096101fe565b604051610116919061025e565b60405180910390f35b610127610222565b60405161013491906102b6565b60405180910390f35b607b81565b5f61013890505f4290505f339050505050565b73777788889999aaaabbbbccccddddeeeeffffcccc81565b60015481565b5f805461017f906103a6565b80601f01602080910402602001604051908101604052809291908181526020018280546101ab906103a6565b80156101f65780601f106101cd576101008083540402835291602001916101f6565b820191905f5260205f20905b8154815290600101906020018083116101d957829003601f168201915b505050505081565b7f000000000000000000000000000000000000000000000000000000000000000081565b7f000000000000000000000000000000000000000000000000000000000000000081565b5f819050919050565b61025881610246565b82525050565b5f6020820190506102715f83018461024f565b92915050565b5f73ffffffffffffffffffffffffffffffffffffffff82169050919050565b5f6102a082610277565b9050919050565b6102b081610296565b82525050565b5f6020820190506102c95f8301846102a7565b92915050565b5f81519050919050565b5f82825260208201905092915050565b5f5b838110156103065780820151818401526020810190506102eb565b5f8484015250505050565b5f601f19601f8301169050919050565b5f61032b826102cf565b61033581856102d9565b93506103458185602086016102e9565b61034e81610311565b840191505092915050565b5f6020820190508181035f8301526103718184610321565b905092915050565b7f4e487b71000000000000000000000000000000000000000000000000000000005f52602260045260245ffd5b5f60028204905060018216806103bd57607f821691505b6020821081036103d0576103cf610379565b5b5091905056fea26469706673582212208a995c747a356556a5b130b48a493b688eeee447d4e60f0ee3c88c45042e14f664736f6c63430008150033",
  "immutableReferences": {
    "54": [
      {
        "length": 32,
        "start": 548
      }
    ],
    "56": [
      {
        "length": 32,
        "start": 512
      }
    ]
  },
  "source": "// SPDX-License-Identifier: MIT\npragma solidity ^0.8.0;\n\n// There are 3 types of variables in Solidity\n// local:\n//     declared inside a function\n//     not stored on blockchain\n// state:\n//     declared outside a function\n//     stored on the blockchain\n// global:\n//     provides information about the blockchain\n\ncontract Variables {\n    // State variables\n    string public txt = \"Smart\";\n    uint public num = 32;\n\n    // Constants are variables that cannot be modified.\n    address public constant MY_ADDRESS =\n        0x777788889999AaAAbBbbCcccddDdeeeEfFFfCcCc;\n    uint public constant MY_UINT = 123;\n\n    // Immutable variables:\n    address public immutable ADDRESS;\n    uint public immutable UNIT;\n\n    // Immutable variables are like constants. Values of immutable variables can be set inside the constructor\n    // but cannot be modified afterwards.\n    constructor(uint _unit) {\n        ADDRESS = msg.sender;\n        UNIT = _unit;\n    }\n\n    function someFunction() public view {\n        // Local variables\n        uint local = 312;\n\n        // Global variables\n        uint timestamp = block.timestamp;\n        address sender = msg.sender;\n    }\n}\n",
  "sourcePath": "/Users/reyansh/Code/Smart/dAppLearned/SolidityByExample/contracts/002_Variable.sol",
  "compiler": {
    "name": "solc",
    "version": "0.8.21+commit.d9974bed.Emscripten.clang"
  },
  "schemaVersion": "3.4.16",
  "updatedAt": "2024-05-21T09:17:54.053Z",
  "devdoc": {
    "kind": "dev",
    "methods": {},
    "version": 1
  },
  "userdoc": {
    "kind": "user",
    "methods": {},
    "version": 1
  }
}