{
  "contractName": "ViewAndPure",
  "abi": [
    {
      "inputs": [],
      "name": "x",
      "outputs": [
        {
          "internalType": "uint256",
          "name": "",
          "type": "uint256"
        }
      ],
      "stateMutability": "view",
      "type": "function"
    },
    {
      "inputs": [
        {
          "internalType": "uint256",
          "name": "y",
          "type": "uint256"
        }
      ],
      "name": "addToX",
      "outputs": [
        {
          "internalType": "uint256",
          "name": "",
          "type": "uint256"
        }
      ],
      "stateMutability": "view",
      "type": "function"
    },
    {
      "inputs": [
        {
          "internalType": "uint256",
          "name": "i",
          "type": "uint256"
        },
        {
          "internalType": "uint256",
          "name": "j",
          "type": "uint256"
        }
      ],
      "name": "add",
      "outputs": [
        {
          "internalType": "uint256",
          "name": "",
          "type": "uint256"
        }
      ],
      "stateMutability": "pure",
      "type": "function"
    }
  ],
  "bytecode": "0x608060405260015f55348015610013575f80fd5b5061024e806100215f395ff3fe608060405234801561000f575f80fd5b506004361061003f575f3560e01c80630c55699c146100435780635965da7714610061578063771602f714610091575b5f80fd5b61004b6100c1565b6040516100589190610108565b60405180910390f35b61007b6004803603810190610076919061014f565b6100c6565b6040516100889190610108565b60405180910390f35b6100ab60048036038101906100a6919061017a565b6100db565b6040516100b89190610108565b60405180910390f35b5f5481565b5f815f546100d491906101e5565b9050919050565b5f81836100e891906101e5565b905092915050565b5f819050919050565b610102816100f0565b82525050565b5f60208201905061011b5f8301846100f9565b92915050565b5f80fd5b61012e816100f0565b8114610138575f80fd5b50565b5f8135905061014981610125565b92915050565b5f6020828403121561016457610163610121565b5b5f6101718482850161013b565b91505092915050565b5f80604083850312156101905761018f610121565b5b5f61019d8582860161013b565b92505060206101ae8582860161013b565b9150509250929050565b7f4e487b71000000000000000000000000000000000000000000000000000000005f52601160045260245ffd5b5f6101ef826100f0565b91506101fa836100f0565b9250828201905080821115610212576102116101b8565b5b9291505056fea264697066735822122020910cd2082b9d17892e07cbb2fab1cf6b1690328c7eaad89805809fb9e633b464736f6c63430008150033",
  "immutableReferences": {},
  "source": "// SPDX-License-Identifier: MIT\npragma solidity ^0.8.0;\n\n/*  \n    Getter functions can be declared view or pure.\n    View function declares that no state will be changed.\n    Pure function declares that no state variable will be changed or read.\n*/\n\ncontract ViewAndPure {\n    uint256 public x = 1;\n\n    // Promise not to modify the state.\n    function addToX(uint256 y) public view returns (uint256) {\n        return x + y;\n    }\n\n    // Promise not to modify or read from the state\n    function add(uint256 i, uint256 j) public pure returns (uint256) {\n        return i + j;\n    }\n}\n",
  "sourcePath": "/Users/reyansh/Code/Smart/dAppLearned/SolidityByExample/contracts/015_ViewAndPure.sol",
  "compiler": {
    "name": "solc",
    "version": "0.8.21+commit.d9974bed.Emscripten.clang"
  },
  "schemaVersion": "3.4.16",
  "updatedAt": "2024-05-24T04:35:36.471Z",
  "devdoc": {
    "kind": "dev",
    "methods": {},
    "version": 1
  },
  "userdoc": {
    "kind": "user",
    "methods": {},
    "version": 1
  }
}